:020000040800F2
:10000000981D002029020008810500084B03000804
:100010007D050008F70300089910000800000000A3
:10002000000000000000000000000000AD06000815
:10003000FB03000800000000970200089D0700086D
:10004000430200084302000843020008430200087C
:10005000430200084302000843020008430200086C
:10006000430200084302000843020008430200085C
:10007000430200084302000843020008430200084C
:10008000430200084302000843020008430200083C
:10009000430200084302000843020008430200082C
:1000A000430200084302000843020008430200081C
:1000B000430200084302000843020008430200080C
:1000C00043020008430200084302000843020008FC
:1000D000430200081D0A0008210B0008250C000837
:1000E00043020008430200084302000843020008DC
:1000F00043020008430200084302000843020008CC
:1001000043020008430200084302000843020008BB
:1001100015080008190900084302000843020008F6
:10012000430200084302000843020008430200089B
:10013000430200084302000843020008430200088B
:10014000430200084302000843020008430200087B
:10015000430200084302000843020008290D00087A
:10016000430200084302000843020008430200085B
:10017000430200084302000843020008430200084B
:10018000430200084302000800F002F800F03CF8C7
:100190000AA090E8000C82448344AAF10107DA45E2
:1001A00001D100F031F8AFF2090EBAE80F0013F0F8
:1001B000010F18BFFB1A43F001031847942B0000EE
:1001C000B42B0000103A24BF78C878C1FAD852077F
:1001D00024BF30C830C144BF04680C6070470000C1
:1001E0000023002400250026103A28BF78C1FBD840
:1001F000520728BF30C148BF0B6070471FB502F0DF
:1002000009FD1FBD10B510BD00F0BBF81146FFF78A
:10021000F5FF00F0E9F800F0D9F803B4FFF7F2FFBA
:1002200003BC00F0E5FF000009488047094800478B
:10023000FEE7FEE7FEE7FEE7FEE7FEE7FEE7FEE796
:10024000FEE7FEE704480549054A064B70470000F3
:10025000AD0700088901000898170020981D0020AC
:100260009819002098190020EFF3108072B670479B
:1002700080F3108870473A4A1368012B04D04FF07E
:1002800001031360374A1060374A116037484FF056
:10029000805101607047EFF3108272B630480168F8
:1002A00051B34FF0000101602E48016891B1EFF3A6
:1002B00009811EF0100F08BF21ED108B21E9F00F0E
:1002C0004FF000041EF0100F08BF012441F8044D48
:1002D0000068016024490968096808C9B1E8F00F9D
:1002E000002B18BFB1EC108B81F309884EF0100E73
:1002F000002B18BF2EF0100E82F310884EF0040E63
:10030000704719490860EFF3148222F0040282F367
:10031000148814494FF00000086011494FF00100A3
:10032000086013484FF47F01D0F8002041EA020131
:1003300001600E484FF0805101600E48006800686F
:1003400080F3088861B662B67047EFF3098000B5A4
:1003500001F0BAFA5DF804EB4EF0040E70470000AD
:1003600010010020080100200C01002004ED00E035
:1003700020ED00E008ED00E07047704770477047DF
:100380007047754600F02CF8AE46050069465346A6
:1003900020F00700854618B020B5FFF753FFBDE8F1
:1003A00020404FF000064FF000074FF000084FF0DC
:1003B000000B21F00701AC46ACE8C009ACE8C0096D
:1003C000ACE8C009ACE8C0098D46704710B50446DA
:1003D000AFF300802046BDE81040FFF71EBF0000CD
:1003E000004870473817002010B5FFF73DFF02F0B6
:1003F000E9FB002010BD00BFFEE77047F0B50A46DC
:1004000000210023002400BF3DE0012505FA01F38F
:10041000156805EA03049C4234D105684F000326A1
:10042000BE40B543056015794E00B54006683543BA
:1004300005601579012D02D01579022D16D1856838
:100440004F000326BE40B543856055794E00B54048
:10045000866835438560456801268E40B543456012
:10046000456896798E40B6B235434560C5684F0001
:100470000326BE40B543C560D5794E00B540C66879
:100480003543C560491C1029BFD3F0BDF0B500232A
:1004900000244D07ED0E02FA05F3CE1000F1200501
:1004A00055F826504E07F70E0F26BE40B543CF1025
:1004B00000F1200646F82750CE1000F1200555F82F
:1004C000265045EA0304CE1000F1200545F82640E9
:1004D000F0BD00001CB50121112000F053F81C20D4
:1004E000009000208DF8040003208DF80500012005
:1004F0008DF8070069460648FFF780FF012000904D
:1005000002208DF8070069460248FFF777FF1CBDFF
:1005100000100240000002401CB50121202000F024
:1005200031F84FF48070009001208DF80400002015
:100530008DF8060003208DF8050001208DF80700D6
:1005400069460D48FFF75AFF4FF400700090694666
:100550000948FFF753FF4FF4806000906946064852
:10056000FFF74CFF4FF480700349183108804000BA
:100570000880400008801CBD0014024000BFFEE758
:100580007047000029B1064A12680243044B1A6002
:1005900004E0034A12688243014B1A60704700006E
:1005A0003038024029B1064A12680243044B1A60EF
:1005B00004E0034A12688243014B1A60704700004E
:1005C00044380240F0B50021002200240225002614
:1005D0000223324F3F6807F00C0121B1042905D0F6
:1005E000082937D105E02E4F076036E02D4F076010
:1005F00033E02A4F3F1F3F68C7F38056274F3F1F06
:100600003F6807F03F036EB1264FB7FBF3F7DFF803
:100610008CC0ACF1040CDCF800C0CCF3881C07FBE8
:100620000CF40CE01E4FB7FBF3F7DFF870C0ACF131
:10063000040CDCF800C0CCF3881C07FB0CF4174F4B
:100640003F1F3F68C7F301477F1C7D00B4FBF5F7F0
:10065000076002E0124F076000BF00BF0F4F3F6806
:1006600007F0F0010909104F7A5C0768D74047602E
:100670000A4F3F6807F4E051890A0B4F7A5C4768DC
:10068000D7408760054F3F6807F46041490B064F2C
:100690007A5C4768D740C760F0BD00000838024068
:1006A0000024F40000127A001400002070470000BB
:1006B0000CB50020019000903448006840F4803070
:1006C0003249086000BF3148006800F400300090F3
:1006D0000198401C0190009818B90198B0F5A04FFE
:1006E000F1D12A48006800F4003010B101200090D8
:1006F00001E0002000900098012846D123484030B6
:10070000006840F08050214940310860204800686E
:1007100040F440401E4908601C48083000681B49EE
:10072000083108600846006840F400400860084648
:10073000006840F4A05008601648091F0860081FB0
:10074000006840F08070091F086000BF0F48006813
:1007500000F000700028F9D040F205700E490860E2
:100760000A480830006820F0030008490831086092
:100770000846006840F00200086000BF03480830E7
:10078000006800F00C000828F8D10CBD00380240C9
:100790000070004008544007003C024010B501F0D2
:1007A00041F901F045FF01F04DF910BD10B51548B4
:1007B000006840F47000134908601348006840F076
:1007C00001001149086000200F49083108600E48F7
:1007D00000680E4908400C4908600D48091D086072
:1007E000081F006820F48020091F086000200649C7
:1007F0000C310860FFF75CFF4FF000600149803961
:10080000086010BD88ED00E000380240FFFFF6FEF2
:100810001030002470B540F225513C4800F01FFB19
:10082000002871D0394800F0D3FBC4B23848807931
:10083000222806D0232816D0252850D0262861D17A
:1008400023E0242C09D13248C07832490C540120CD
:100850002F49C8702320887104E000202C49C870FB
:10086000222088714FE03A2C09D12948C0782949C3
:100870000C5402202649C8702620887104E000200C
:100880002349C870222088713DE02148C078214961
:100890000C541F48C078401C1D49C8700846C078D9
:1008A000402812DD002506E000201949C978194AC0
:1008B0005054681CC5B21648C078A842F4DC002029
:1008C0001349C8702220887108E00D2C03D125201F
:1008D0000F49887102E026200D49887113E00C4809
:1008E000C0780C490C540A48C078401C0849C870AC
:1008F0000A2C02D12F20887102E026200449887139
:1009000001E001E000BF00BF70BD0000004C0040EE
:10091000480000209812002070B540F225513C4854
:1009200000F09DFA002871D0394800F051FBC4B2A4
:1009300038488079222806D0232816D0252850D080
:10094000262861D123E0242C09D13248C0783249CD
:100950000C5401202F49C8702320887104E0002026
:100960002C49C870222088714FE03A2C09D12948BF
:10097000C07829490C5402202649C8702620887165
:1009800004E000202349C870222088713DE02148FE
:10099000C07821490C541F48C078401C1D49C870BC
:1009A0000846C078402812DD002506E000201949DD
:1009B000C978194A5054681CC5B21648C078A84274
:1009C000F4DC00201349C8702220887108E00D2C47
:1009D00003D125200F49887102E026200D49887136
:1009E00013E00C48C0780C490C540A48C078401CED
:1009F0000849C8700A2C02D12F20887102E02620F5
:100A00000449887101E001E000BF00BF70BD000033
:100A100000500040500000201813002070B540F234
:100A200025513C4800F01BFA002871D0394800F0ED
:100A3000CFFAC4B238488079222806D0232816D0AD
:100A4000252850D0262861D123E0242C09D1324812
:100A5000C07832490C5401202F49C8702320887176
:100A600004E000202C49C870222088714FE03A2C05
:100A700009D12948C07829490C5402202649C87058
:100A80002620887104E000202349C8702220887144
:100A90003DE02148C07821490C541F48C078401CD3
:100AA0001D49C8700846C078402812DD002506E0C0
:100AB00000201949C978194A5054681CC5B2164813
:100AC000C078A842F4DC00201349C8702220887145
:100AD00008E00D2C03D125200F49887102E0262063
:100AE0000D49887113E00C48C0780C490C540A4831
:100AF000C078401C0849C8700A2C02D12F20887188
:100B000002E026200449887101E001E000BF00BF37
:100B100070BD0000001001403000002018110020BE
:100B200070B540F225513C4800F099F9002871D089
:100B3000394800F04DFAC4B238488079222806D0EE
:100B4000232816D0252850D0262861D123E0242C34
:100B500009D13248C07832490C5401202F49C8705D
:100B60002320887104E000202C49C870222088715D
:100B70004FE03A2C09D12948C07829490C54022069
:100B80002649C8702620887104E000202349C870D7
:100B9000222088713DE02148C07821490C541F482B
:100BA000C078401C1D49C8700846C078402812DD36
:100BB000002506E000201949C978194A5054681CDC
:100BC000C5B21648C078A842F4DC00201349C870AA
:100BD0002220887108E00D2C03D125200F4988714F
:100BE00002E026200D49887113E00C48C0780C49BA
:100BF0000C540A48C078401C0849C8700A2C02D11D
:100C00002F20887102E026200449887101E001E06C
:100C100000BF00BF70BD000000440040380000204D
:100C20009811002070B540F225513C4800F017F9AA
:100C3000002871D0394800F0CBF9C4B23848807927
:100C4000222806D0232816D0252850D0262861D166
:100C500023E0242C09D13248C07832490C540120B9
:100C60002F49C8702320887104E000202C49C870E7
:100C7000222088714FE03A2C09D12948C0782949AF
:100C80000C5402202649C8702620887104E00020F8
:100C90002349C870222088713DE02148C07821494D
:100CA0000C541F48C078401C1D49C8700846C078C5
:100CB000402812DD002506E000201949C978194AAC
:100CC0005054681CC5B21648C078A842F4DC002015
:100CD0001349C8702220887108E00D2C03D125200B
:100CE0000F49887102E026200D49887113E00C48F5
:100CF000C0780C490C540A48C078401C0849C87098
:100D00000A2C02D12F20887102E026200449887124
:100D100001E001E000BF00BF70BD000000480040DE
:100D2000400000201812002070B540F225513C48C8
:100D300000F095F8002871D0394800F049F9C4B2A4
:100D400038488079222806D0232816D0252850D06C
:100D5000262861D123E0242C09D13248C0783249B9
:100D60000C5401202F49C8702320887104E0002012
:100D70002C49C870222088714FE03A2C09D12948AB
:100D8000C07829490C5402202649C8702620887151
:100D900004E000202349C870222088713DE02148EA
:100DA000C07821490C541F48C078401C1D49C870A8
:100DB0000846C078402812DD002506E000201949C9
:100DC000C978194A5054681CC5B21648C078A84260
:100DD000F4DC00201349C8702220887108E00D2C33
:100DE00003D125200F49887102E026200D49887122
:100DF00013E00C48C0780C490C540A48C078401CD9
:100E00000849C8700A2C02D12F20887102E02620E0
:100E10000449887101E001E000BF00BF70BD00001F
:100E200000140140580000209813002021B182894D
:100E300042F40052828104E082894DF6FF731A4029
:100E40008281704702460020B1F5007F00D100BFCB
:100E500013880B400BB1012000E00020704770B5F3
:100E60000246002400230025002040F66A16B14205
:100E700000D100BFC1F3421501F01F03012606FA9D
:100E800003F3012D02D19689334006E0022D02D1F1
:100E9000168A334001E0968A33400C12012606FA86
:100EA00004F41688344013B10CB1012000E0002096
:100EB00070BDF0B50346002400260025002040F652
:100EC0006A17B94200D100BF1846C1F3421401F0BD
:100ED0001F06012707FA06F5012C01D10C3004E0AA
:100EE000022C01D1103000E014301AB107682F43F2
:100EF000076002E00768AF430760F0BD2DE9FF47D8
:100F000005460E460024A14600BFA046B08900B1A8
:100F100000BF2C8A24F44054F08804432C82AC890E
:100F200041F20C608443B0883189084371890843D9
:100F30000443AC81AC8A24F44074B0890443AC828D
:100F40006846FFF73FFB2048854202D01F48854294
:100F500002D1DDF80C9001E0DDF80890A88900F4DA
:100F6000004040B109EBC90000EB091031684900AD
:100F7000B0FBF1F707E009EBC90000EB091031689D
:100F80008900B0FBF1F76420B7FBF0F00401200901
:100F9000642101FB1078A88900F4004040B13220A0
:100FA00000EBC800B0FBF1F000F00700044308E0DC
:100FB000322000EB08106421B0FBF1F000F00F00CC
:100FC00004432C81BDE8FF8700100140001401405C
:100FD00001468888C0F308007047C1F30802828088
:100FE0007047000010B586B0044601210846FFF79F
:100FF000C9FA01211020FFF7D5FA072209211D485F
:10100000FFF744FA07220A211A48FFF73FFA4FF484
:10101000C060049002208DF814008DF815000020A7
:101020008DF8160001208DF8170004A91148FFF76C
:10103000E5F900940020ADF80400ADF80600ADF825
:101040000800ADF80C000C20ADF80A0069460A480B
:10105000FFF754FF01210848FFF7E8FE012240F2A4
:1010600025510548FFF725FF22200449887106B065
:1010700010BD0000000002400010014030000020C0
:1010800010B54FF4E130FFF7ADFF002001490871C2
:10109000C87010BD3000002000BFFEE7014609B94E
:1010A00000207047C8B220B1C8B20E4A105C401C84
:1010B000F7E701F47F4028B10A48C1F30722805CBA
:1010C0000930EEE701F47F0028B10648C1F307427A
:1010D000805C1130E5E7034800EB116000781930BF
:1010E000DFE700001E2C000803490868884201D091
:1010F000012070470020FCE7F40000202DE9FC5F90
:1011000004468B4615461E46DDE90C9ADDE90E784D
:1011100004F114004060006000BF1C346560A660EC
:10112000C4F80C90C4F810A02321D4E9030200F005
:10113000F7FDD4E9033C63441A1F0F4BD4E90101C6
:1011400000F048FC2060A77667760020E061C4F8D4
:101150002880C4F82C8060612076E06520661C3C05
:1011600000902346054A2146019004F14C0001F00D
:10117000E1FA0020BDE8FC9F55230008A1250008E6
:101180002DE9F04704460E4617469846DDF82090B4
:1011900084F80990607A20F001006072E6612762AD
:1011A0000020A062C4F82480002506E004F11401A8
:1011B00001EBC50000F0BCFC6D1C012DF6DBBDE8A9
:1011C000F08710B50246002001460EE002F114033C
:1011D00003EBC100D0E900436360D0E90034236031
:1011E0004060006000BF481C01460129EEDB10BDD5
:1011F00000BF70471CA000F07DFC642000F0DAFC0A
:10120000214908600846006848B920A000F072FC37
:101210002348006880F480702149086004E01A487F
:10122000016820A000F066FC27A000F063FC40F2FB
:10123000D2401549096808602BA000F05BFC1248F9
:1012400000680168104802682EA000F053FC09E015
:101250001348006880F48070114908604FF47A7078
:1012600001F071F8F4E70000D5FDD4DACFF2C4DA6A
:10127000B4E6B3D8C9EAC7EBC4DAB4E62E2E2E2EF4
:101280002E2E2E2E0A0000002C000020B6AFCCAC73
:10129000C4DAB4E6C9EAC7EBCAA7B0DCA3A10A0066
:1012A00014140240B6AFCCACC4DAB4E6C9EAC7EB5A
:1012B000B3C9B9A6A3ACB5D8D6B7CEAA307825782D
:1012C000A3A10A0A00000000D5FDD4DACFF2705FB6
:1012D00074657374D0B4C8EBCAFDBEDD2E2E2E2EFD
:1012E0002E2E2E2E0A000000D2D1BEADD0B4C8EBF7
:1012F000705F74657374B5D8D6B7B5C4CAFDBEDD6A
:101300000A0000002A705F74657374203D20202558
:101310002E3464A3ACB5D8D6B7CEAA30782578A140
:10132000A30A0A000AA000F0E5FB0F48006800F0DD
:10133000EBF90EA000F0DEFB09E01148006880F434
:1013400000700F4908604FF4FA7000F0FCFFF4E7FA
:10135000D5FDD4DACACDB7C5C4DAB4E62E2E2E2E0A
:101360002E2E2E2E0A0000002C000020CACDB7C55C
:10137000C4DAB4E6B3C9B9A6A3A10A0A0000000002
:10138000141402401CB51CA000F0B4FB1BA000F01C
:10139000B1FB19A000F0AEFB142001214B0200228A
:1013A000CDE900101A491BA000F0A5FF1B490860F9
:1013B0000846006820B10846006801F0B9F802E06C
:1013C0004FF0FF301CBD142002210B020022CDE99A
:1013D0000010134913A000F08EFF1449086008465E
:1013E000006820B10846006801F0A2F802E04FF062
:1013F000FF30E7E70020E5E70A0A0000B6AFCCAC13
:10140000C4DAB4E6B9DCC0EDCAB5D1E90A0000001F
:10141000F5110008616C6C6F63000000240000206F
:101420002513000866726565000000002800002092
:1014300010B5044600F02CF9FFF7A4FF10BD000022
:1014400030B51A4C436824681919884215D04B8866
:101450009BB9174B1B6899420FD0164B1B688B42E8
:1014600001D1144B18604B684360104B1B68C31AC2
:101470000E4D4C682D682C44A3600C4C8368246886
:101480001A19824211D053887BB90A4B1B688342D8
:1014900001D1084B1A6043685360044B1B68D31A90
:1014A000024D44682D682C44A36030BD6C000020C0
:1014B00070000020740000202DE9F04F85B00D462B
:1014C0009C46DDE90F740E9B04F04008B8F1000F54
:1014D00002D0DFF8688101E0DFF86481CDF8008098
:1014E00004F01008B8F1000F01D024F0010404F05A
:1014F0000108B8F1000F02D04FF0300801E04FF0C2
:101500002008C246002604F00208B8F1000F11D0EE
:10151000002A02DA2D2652420CE004F00408B8F149
:10152000000F01D02B2605E004F00808B8F1000FE9
:1015300000D02026002142B94FF0300B8846491CCC
:101540000DF1040909F808B01DE01AE0E146B9F10F
:101550000A0F08D14FF00A0BB2FBFBFE0BFB1E2853
:10156000B2FBFBF202E002F00F08120900BFDDF847
:10157000009019F808B08846491C0DF1040909F8D3
:1015800008B0002AE2D1B94200DD0F46DB1B04F0AF
:101590001108B8F1000F10D116B1002B00DD5B1E51
:1015A00006E0A84203D84FF0200880F80080401CD5
:1015B000B3F10008A3F10103F3DC26B1A84201D87E
:1015C00006705B1E401C04F01008B8F1000F0AD131
:1015D00004E0A84201D880F800A0401CB3F1000844
:1015E000A3F10103F5DC06E0A84203D84FF0300870
:1015F00080F80080401CB8467F1E8845F4DC08E077
:10160000A84205D80DF1040818F8018080F8008080
:10161000401CB1F10008A1F10101F1DC06E0A84293
:1016200003D84FF0200880F80080401CB3F1000878
:10163000A3F10103F3DC05B0BDE8F08F2F2D000806
:101640001E2D00081CB514200A214FF4007300223F
:10165000CDE90010044905A000F04DFE04462046E7
:1016600000F066FF1CBD0000311400086D61696E5A
:101670000000000010B5044C02E020688047241DE3
:1016800002488442F9D310BD442D0008482D0008BB
:1016900010B5044C02E020688047241D02488442B3
:1016A000F9D310BD482D00084C2D000810B5FEF7E9
:1016B000DBFD044604480088401C00B20249088053
:1016C0002046FEF7D5FD10BDE400002010B5FEF762
:1016D000CBFD04460B480088401E00B20949088033
:1016E0000846B0F90000002807DC002008802046EA
:1016F000FEF7BEFD00F0B6FB02E02046FEF7B8FDA7
:1017000010BD0000E400002070B5054605B970BDAD
:101710001D480068854203D31C480068854200D3F9
:10172000F5E7A5F10C044FF0FF31194800F064FC17
:10173000608818B12088B0F5F55F08D015A000F0DA
:10174000D9F923886288214619A000F0D3F9002036
:1017500060804FF4F550208021480068844201D217
:101760001F480460084960680968611A401A1D49E9
:101770000968081A1B4908602046FFF761FE044803
:1017800000F01DFC00BFC2E76C00002070000020CC
:1017900018160020746F20667265652061206261F2
:1017A00064206461746120626C6F636B3A0A0000AC
:1017B0006D656D3A203078253038782C207573654A
:1017C0006420666C61673A2025642C206D6167692E
:1017D0006320636F64653A203078253034780A00DE
:1017E000740000207C000020004870471801002091
:1017F000004870471811002070B51C4800684FF46D
:101800007A72B0FBF2F1481EB0F1807F00D31BE08A
:10181000481E4FF0E022506150170F22002807DACF
:1018200013071D0E124B00F00F04241F1D5503E07B
:1018300013071C0E0F4B1C5400BF00204FF0E0227A
:1018400090610720106100BFFEF766FEFFF718FCED
:10185000FEF740FEFFF70EFFFFF7CAFF0446FFF753
:10186000C3FF0546214600F07DFC70BD000000204E
:1018700018ED00E000E400E010B50446FFF716FFA5
:1018800019E020780A280AD10D210E48FFF7A5FBA0
:1018900000BF80210B48FFF7D5FA0028F9D014F8D3
:1018A000011B0848FFF799FB00BF80210548FFF79F
:1018B000C9FA0028F9D020780028E2D1FFF706FF06
:1018C00010BD00000010014070B5044619480068C2
:1018D00038B12046174909688847054605B970BDE3
:1018E00000BF15A0E16900F005F917A0A16900F09B
:1018F00001F919A0616900F0FDF81BA0216900F051
:10190000F9F81DA0E16800F0F5F81FA0A16800F04B
:10191000F1F821A0616800F0EDF823A0216800F043
:10192000E9F800F0DDFD0546294623A000F0E2F8C5
:1019300000BFFEE7140100207073723A2030782552
:101940003038780A000000002070633A2030782593
:101950003038780A00000000206C723A2030782578
:101960003038780A000000007231323A2030782591
:101970003038780A000000007230333A2030782581
:101980003038780A000000007230323A2030782572
:101990003038780A000000007230313A2030782563
:1019A0003038780A000000007230303A2030782554
:1019B0003038780A00000000686172642066617542
:1019C0006C74206F6E207468726561643A202573B0
:1019D0000A000000F0B504460D461646301D20F002
:1019E000070044380146002203E00D4F41F8227001
:1019F000521C112AF9D34D624FF0000CC1F828C0D7
:101A0000C1F82CC0C1F830C0C1F834C08B63CC63BE
:101A10004FF0807CC1F840C000270F60F0BD00008F
:101A2000EFBEADDE10B5FEF71FFC0446044800789B
:101A3000401C034908702046FEF71AFC10BD000048
:101A40006800002010B5FEF70FFC0446044800783B
:101A5000401E034908702046FEF70AFC10BD000036
:101A60006800002070B504462068A0F114052846DF
:101A700000F018FD002070BD2DE9F04105460C4630
:101A80009046204600F06AFDB8F1000F03D0B8F18F
:101A9000010F23D105E004F11401284600F060F89D
:101AA0001CE02E680FE0A6F1140794F8350097F8B3
:101AB0003510884206DA04F1140107F1140000F031
:101AC0004FF802E03668AE42EDD100BFAE4204D11D
:101AD00004F11401284600F043F800BF00BF0020C5
:101AE000BDE8F08110B5044604F1140000F01AF8C6
:101AF000002010BD0FB438B505A800907F2108481C
:101B0000009B049A00F0C2FE04467F2C00D97F247B
:101B10000348FFF7B1FE0020009038BC5DF814FBCD
:101B2000981500204060006070474060006070477A
:101B30004060006070470268516002680A6001609E
:101B4000486070470268516002680A60016048603E
:101B500070470268516002680A600160486070471F
:101B60004268116042684A604160086070470146FF
:101B70000868884201D1012070470020FCE7014637
:101B80000868884201D1012070470020FCE7D0E9B5
:101B900000215160D0E90012116040600060704780
:101BA000D0E900215160D0E900121160406000606E
:101BB000704700002DE9F041054615B90020BDE849
:101BC000F081E81C20F003054E480068854201D9E9
:101BD0000020F4E70C2D00D20C254FF0FF314A48CD
:101BE00000F00AFA4948006849490968461A7EE047
:101BF0004748006884196088002874D106F10C00F9
:101C00006168081AA8426ED306F10C006168091ACF
:101C100005F11800814230D306F10C0000EB0508F5
:101C20003B48006800EB08074FF4F550388000206F
:101C3000788060687860BE60C4F8048001206080AD
:101C40003048796800680C30814205D030497868A6
:101C500009680844C0F808802E48016805F10C00A6
:101C600008442C4908602C4800680968884219D249
:101C7000284800682849086014E001206080244951
:101C800060680968611A401A2249096808442149B4
:101C90000860214800680968884203D21D4800682E
:101CA0001D4908604FF4F5502080184800688442B0
:101CB00012D107E0154800684068154909680844D2
:101CC0001249086011480068408828B10F48006830
:101CD000124909688842EDD10B4800F070F904F10F
:101CE0000C006CE7FFE70A48006830444668054886
:101CF0000068401BB0423FF67BAF034800F05FF93D
:101D000000205CE7780000201816002074000020F6
:101D10006C0000207C00002080000020700000206B
:101D2000F0B50C460546E6B2042A15D300F00307C9
:101D300097B9014646EA062343EA034304E008C193
:101D400008C108C108C1103A102AF8D201E008C140
:101D5000121F042AFBD20D4601E005F8016B171E85
:101D6000A2F10102F9D1F0BD2DE9F04105460F467F
:101D7000284600F03BF80646F068FFF71BFF0446D4
:101D800014B90020BDE8F08125720020607208229D
:101D90003946204600F0CBF9FEF766FA804604F19A
:101DA0000C01301DFFF7C7FE4046FEF761FA2046E2
:101DB000E8E770B50446FEF757FA054604F10C0053
:101DC000FFF7E5FE2846FEF753FA2046FFF79CFC96
:101DD00070BD70B50446FEF747FA054604F10C00E5
:101DE000FFF7D5FE2846FEF743FA70BD02460021F4
:101DF0000AE0074800EB01100078904203D1044844
:101E000000EB01107047491C0629F2DB0020F9E7BE
:101E1000840000202DE9F04104460D461646284670
:101E2000FFF7E4FF074645F08000207208223146A4
:101E3000204600F07CF9FEF717FA804604F10C0109
:101E4000381DFFF778FE4046FEF712FABDE8F08134
:101E50000146087A00F0800008B101207047002098
:101E6000FCE700002DE9F041FEF7FEF907461B48AC
:101E7000008868BB1A480068FFF710F9461E194829
:101E800050F83600A0F114041748006884421BD0B3
:101E900016490E701448056804601548007848B962
:101EA00004F11C0105F11C00FEF7E5F93846FEF7C8
:101EB000DFF90CE004F11C0105F11C00FEF7DBF971
:101EC0003846FEF7D5F902E03846FEF7D1F902E0D0
:101ED0003846FEF7CDF9BDE8F0810000E4000020AF
:101EE000F000002038160020E8000020EC00002060
:101EF0006800002070B50446FEF7B6F9054614F8F0
:101F0000340F20F00F0040F0010020706278343C64
:101F10000A4B03EBC20004F11401426811604268ED
:101F20004A604160086000BF0549A06B096808432A
:101F3000034908602846FEF79BF970BD381600205B
:101F4000F000002070B50446FEF78EF9054604F156
:101F50001400D0E900215160D0E900121160406006
:101F6000006000BF94F83510094A02EBC100016817
:101F7000814201D1012100E0002129B10548A16B76
:101F800000688843034908602846FEF771F970BD70
:101F900038160020F00000202DE9F04104460D46DF
:101FA00016461F462A4601212046FFF733FF2046EA
:101FB000FFF798FDA68367720020BDE8F08170B539
:101FC00004460025FEF750F9064604F11400FFF719
:101FD000CEFD28B904F11400FFF744FD012502E00D
:101FE000A08B401CA0833046FEF742F9012D01D1A1
:101FF000FFF738FF002070BD73B50546FEF734F9D2
:102000000646A88B002806DDA88B401EA883304614
:10201000FEF72EF928E0019828B93046FEF728F996
:102020006FF001007CBD00F05BFA044600202063E5
:102030006A7A214605F11400FFF71EFD0198002879
:1020400009DD01AA002104F14C0000F047FB04F176
:102050004C0000F087FB3046FEF70AF9FFF702FF5D
:10206000206B08B1206BDDE70020DBE708B509A095
:10207000FFF740FD0AA0FFF73DFD12A00323002259
:102080001946009012A0FFF735FD19A0FFF732FDA9
:1020900008BD00000A205C207C202F0A0000000000
:1020A0002D205254202D202020202054687265615C
:1020B00064204F7065726174696E67205379737420
:1020C000656D0A004D61792032342032303139009B
:1020D000202F207C205C202020202025642E2564B9
:1020E0002E2564206275696C642025730A00000047
:1020F0002032303036202D203230313820436F707E
:102100007972696768742062792072742D746872BC
:10211000656164207465616D0A00000001460A462D
:1021200000E0521C10780028FBD1501A704770B59F
:102130000346A2B118460C4600BF14F8016B00F824
:10214000016B3EB902E0002500F8015B551E2A1E16
:10215000F9D102E0551E2A1EEFD100BF00BF18467C
:1021600070BD00002DE9F04105460E46E81C20F048
:10217000030726F00308B8F1180F09D9A8F11800D1
:10218000B84205D3A8EB070018381E49086006E0DE
:10219000324629461CA0FFF7ADFCBDE8F081294876
:1021A000076004684FF4F5502080164800680C3032
:1021B00060600020A060608022496068096808446F
:1021C000214908604FF4F5500968088001201E4934
:1021D000096848800B4800680C301B490968486052
:1021E000084800680C3018490968886000230122FB
:1021F00016A11848FFF7D0FE12480068164908607B
:1022000000BFCAE7780000206D656D20696E6974B3
:102210002C206572726F7220626567696E2061643E
:10222000647265737320307825782C20616E642089
:10223000656E6420616464726573732030782578FC
:102240000A0000006C0000207000002068656170CA
:1022500000000000181600207400002010B50020B7
:102260000B490880002405E00A4901EBC400FFF790
:102270005CFC641C202CF7DB1F2007490870002041
:1022800006490860064908600648FFF74EFC10BD85
:10229000E400002038160020EC000020E8000020B8
:1022A000F0000020F400002070B508480068FEF738
:1022B000F5FE451E064850F83500A0F11404054807
:1022C000046004F11C00FEF71CF870BDF000002053
:1022D00038160020E800002010B5002405E004496D
:1022E00001EBC400FFF724FC641C002CF7D010BDE8
:1022F000FC00002070472DE9FF5F06460F46904620
:102300001D46DDE90EAB31460020FFF72DFD81466D
:10231000B9F1000F03D1002004B0BDE8F09F2846BA
:10232000FFF748FC044624B94846FFF742FD002069
:10233000F2E743463A46314648468DE8300CFEF710
:10234000DDFE4846E8E710B50446204600F0CEF82A
:1023500010BD000070B512480468FDF785FF054602
:102360002046FFF7EFFD042084F8340004F14C0010
:1023700000F0D0F92046FFF76BFD012805D1A06FD2
:1023800018B92046FFF725FD04E004F114010548C3
:10239000FFF7D8FB2846FDF76BFFFFF763FD70BD25
:1023A000E8000020F400002001E000F001F8FCE764
:1023B00070B537E0FDF758FF0546FEF795FE18B3F8
:1023C0001B480068A0F1140404F11400D0E90021B6
:1023D0005160D0E9001211604060006000BFFFF75B
:1023E00065F9A06F10B12046A16F88472046FFF71E
:1023F0002FFD012805D1FFF769F92846FDF738FFC1
:1024000070BDFFF763F903E02846FDF731FFF7E7FA
:102410002846FDF72DFFA06AFFF776F92046FFF763
:10242000C8FC00BFFEF760FE0028C3D100BFE7E78D
:10243000F40000201FB520201F21C200074BCDE96A
:102440000032CDE902100023054A06A1074800F03A
:102450000FF8064800F06CF81FBD0000981400202B
:10246000A92300087469646C65000000181400203A
:102470002DE9FF5F05460C4616461F46DDE910AB09
:10248000DDE90E89224600212846FFF7C3FC3B46C2
:102490003246214628468DE8000FFEF72FFE04B095
:1024A000BDE8F09F70B5044694F8340000F00F00CA
:1024B000022802D04FF0FF3070BDFDF7D5FE054673
:1024C00004F11400FFF76CFB04F14C0000F0C6F9B6
:1024D0002846FDF7CDFE2046FFF70CFD0020EBE778
:1024E0000148006870470000E800002031B5FDF7A2
:1024F000BBFE05460D480468204600F02FF86A46EA
:10250000002104F14C0000F0E9F804F14C0000F067
:1025100029F92846FDF7ACFEFFF7A4FC206B801CD0
:1025200008B900202063002038BD0000E80000202A
:1025300010B504463434A07860706178012088407A
:102540006060022004F834092046FFF7ABFFFFF774
:10255000C7FF08B1FFF786FC002010BD70B5044628
:1025600094F8340000F00F00012802D04FF0FF3043
:1025700070BDFDF779FE054694F8340020F00F0099
:1025800040F0020084F834002046FFF7DBFC04F141
:102590004C0000F063F92846FDF76AFE0020E7E7EB
:1025A00070B5044625466FF00100286305F114005C
:1025B000FFF7F6FA2846FFF79DFCFFF753FC70BDC6
:1025C00070B5FDF751FE05461448046894F83400D0
:1025D00000F00F0001281CD1D4E90510814218D069
:1025E00004F11400FFF7DCFA94F835200C4B03EBF0
:1025F000C20004F114014268116042684A604160FF
:10260000086000BF2846FDF733FEFFF72BFC0020D3
:1026100070BD2846FDF72CFE0020F9E7E8000020F9
:102620003816002001480068704700006400002050
:1026300010B50A480068401C08490860FFF750FFC1
:102640000446A06C401EA064A06C18B9606CA06425
:10265000FFF7B6FF00F004F810BD00006400002092
:1026600070B5FFF7DFFF0546FDF7FEFD064628E0E3
:1026700019480068A0F11404A06A281A6FF00041FC
:1026800088421DD22046FEF79CFDD4E907108847FA
:10269000FFF7C8FF0546607A00F0020058B1607A83
:1026A00000F0010038B1607A20F00100607220462D
:1026B00000F058F805E0607A20F00100607200E058
:1026C00004E00548FFF75BFA0028D1D000BF304690
:1026D000FDF7CEFD70BD0000FC000020034649B1AF
:1026E000012904D0022908D0032910D10AE0586A30
:1026F00010600CE01068586209E0587A20F002007F
:10270000587204E0587A40F00200587200BF00BFCF
:102710000020704770B50446FDF7A6FD054620462B
:10272000FEF74FFD2846FDF7A3FD2046FFF751FBBE
:10273000002070BD2DE9F84307460C4615461E469D
:10274000DDE90889224609213846FFF763FB434645
:10275000324629463846CDF80090FEF711FDBDE817
:10276000F88300002DE9F8430546FDF77DFD80461E
:102770002846FEF726FD687A20F001006872404680
:10278000FDF776FDFFF74EFF696A0844A862FDF782
:102790006BFD80462F4F009700242AE019E05DF87A
:1027A00024201168142202EBC402881A826AAB6AE0
:1027B000D21A00D108E0826AAB6AD21A6FF00043E5
:1027C0009A4200D20CE000BF5DF8240000684DF88A
:1027D00024005DF8240007EBC40149688842DED17B
:1027E00000BF2CB15DF824000830611C4DF82100B9
:1027F000641C002CD2D018480068401C16490860A0
:102800000846066805F114010098FFF7A2F90224B2
:1028100012E006F0030060B9C4F1010305F11402EF
:1028200002EBC301C4F101025DF82200FFF791F948
:1028300000E003E0B608641C012CEAD900BF687A06
:1028400040F0010068724046FDF712FD0020BDE82F
:10285000F8830000FC0000200401002070B504464D
:10286000607A00F0010010B94FF0FF3070BDFDF745
:10287000FBFC05462046FEF7A4FC2846FDF7F8FCC5
:10288000607A20F0010060720020EFE72DE9FF4F31
:1028900089B0804644460A984044461E464504D2C4
:1028A0004FF0FF36A6EB08000A906FE10B98007816
:1028B000252806D0B44202D80B9800782070641CFA
:1028C00061E1002526E00B98401C0B900B980078E6
:1028D0002D2802D145F010051CE00B9800782B281C
:1028E00002D145F0040515E00B980078202802D1AC
:1028F00045F008050EE00B980078232802D145F03A
:10290000200507E00B980078302802D145F001053A
:1029100000E000E0D7E700BF4FF0FF370B980078EA
:1029200030380A2804D20BA800F061F907460EE0FF
:102930000B9800782A280AD10B98401C0B900C9811
:1029400080C80C90002F02DA7F4245F010054FF04E
:10295000FF390B9800782E281CD10B98401C0B9047
:102960000B98007830380A2804D20BA800F03FF901
:1029700081460AE00B9800782A2806D10B98401C63
:102980000B900C9850F8049B0C90B9F1000F01DAF1
:102990004FF00009002004900B980078682803D0BD
:1029A0000B9800786C2805D10B98007804900B9850
:1029B000401C0B900A2005900B9800786F2875D06A
:1029C0000CDC632813D004DC252870D058286FD184
:1029D0008DE064286DD06928F9D18FE070286AD025
:1029E000732825D0752878D07828F0D182E005F0BA
:1029F000100040B904E0B44201D820202070641CCB
:102A0000781E071EF7DC0C9810F8041B0C90C8B257
:102A10000790B44201D807982070641C04E0B442C7
:102A200001D820202070641C781E071EF7DCAAE065
:102A30000C98006806900C98001D0C90069808B938
:102A40005AA006900698FFF769FB8346B9F1000F7C
:102A500002DDCB4500DDCB4605F0100048B904E0AF
:102A6000B44201D820202070641C38467F1E58458F
:102A7000F6DC002008900BE0B44202D806980078FB
:102A80002070641C0698401C06900898401C089012
:102A900008985845F0DB04E0B44201D820202070AB
:102AA000641C38467F1E5845F6DC6CE01CE015E0DF
:102AB00028E022E0FFE7781C10B9082745F001055F
:102AC000CDE9007902950C9804C8102331460C908A
:102AD0002046FEF7F1FC044655E012E0B44201D86E
:102AE00025202070641C4EE0082005901DE045F074
:102AF000400500BF1020059017E000BF45F002051B
:102B000000BF12E0B44201D825202070641C0B984D
:102B1000007830B1B44202D80B9800782070641C61
:102B200002E00B98401E0B902DE000BF04986C282B
:102B300007D10C9850F804AB0C9005F00200B8B126
:102B400016E0049868280BD10C9830F8041B1FFA83
:102B500081FA0C9005F0020050B10FFA8AFA07E0F2
:102B60000C9850F804AB0C9005F0020000B100BFC7
:102B7000CDE900790295524631462046059BFEF785
:102B80009BFC044600BF0B98401C0B900B980078F0
:102B900000287FF48BAEB44201D8207001E0002001
:102BA0003070A4EB08000DB0BDE8F08F284E554CF6
:102BB0004C2900000020704700207047002070471B
:102BC0000020704710B5FDF74FFBFEF715FEFFF72D
:102BD0004DFAFFF781FBFFF741FBFEF733FDFFF7EF
:102BE00089FBFFF727FCFFF75FFB002010BD0146C4
:102BF000002009E00B685A1C0A601A7800EB800379
:102C000002EB4302A2F130000A681278303A0A2A35
:102C1000F0D370474FF04070E1EE100A70470000AB
:102C20000100020001000300010002000100040095
:102C30000100020001000300010002000100050084
:102C40000100020001000300010002000100040075
:102C50000100020001000300010002000100060063
:102C60000100020001000300010002000100040055
:102C70000100020001000300010002000100050044
:102C80000100020001000300010002000100040035
:102C90000100020001000300010002000100070022
:102CA0000100020001000300010002000100040015
:102CB0000100020001000300010002000100050004
:102CC00001000200010003000100020001000400F5
:102CD00001000200010003000100020001000600E3
:102CE00001000200010003000100020001000400D5
:102CF00001000200010003000100020001000500C4
:102D000001000200010003000100020001000400B4
:102D10000100020001000300010002000100303147
:102D20003233343536373839616263646566003072
:102D30003132333435363738394142434445460021
:102D4000C12B0008B92B0008B52B0008BD2B0008CB
:102D5000702D00080000002018010000C4010008C8
:102D6000882E000818010020801C0000E0010008E7
:102D7000007A030A000000000000000001020304C2
:102D80000607080900000000010203040102030411
:102D90000607080900000000000000000000000015
:102DA0000000000000000000000000000000000023
:102DB0000000000000000000000000000000000013
:102DC0000000000000000000000000000000000003
:102DD00000000000000000000000000000000000F3
:102DE00000000000000000000000000000000000E3
:102DF0000000000000000000880000208800002083
:102E000080000000010000009800002098000020D1
:102E10002000000003000000A8000020A8000020FF
:102E20002000000004000000B8000020B8000020CE
:102E30003000000007000000C8000020C80000208B
:102E40003800000009000000D8000020D800002051
:102E50002C00000000000000000000000000000046
:102E60000000000000000000000000000000000062
:102E70000000000000000000000000000000000052
:082E800000000000000000004A
:040000050800018965
:00000001FF
