:020000040800F2
:10000000281A002029020008010500084B030008F7
:10001000FD040008010400088D060008000000002F
:10002000000000000000000000000000250500089E
:1000300005040008000000009702000815060008EB
:10004000430200084302000843020008430200087C
:10005000430200084302000843020008430200086C
:10006000430200084302000843020008430200085C
:10007000430200084302000843020008430200084C
:10008000430200084302000843020008430200083C
:10009000430200084302000843020008430200082C
:1000A000430200084302000843020008430200081C
:1000B000430200084302000843020008430200080C
:1000C00043020008430200084302000843020008FC
:1000D00043020008430200084302000843020008EC
:1000E00043020008430200084302000843020008DC
:1000F00043020008430200084302000843020008CC
:1001000043020008430200084302000843020008BB
:1001100043020008430200084302000843020008AB
:10012000430200084302000843020008430200089B
:10013000430200084302000843020008430200088B
:10014000430200084302000843020008430200087B
:10015000430200084302000843020008430200086B
:10016000430200084302000843020008430200085B
:10017000430200084302000843020008430200084B
:10018000430200084302000800F002F800F03CF8C7
:100190000AA090E8000C82448344AAF10107DA45E2
:1001A00001D100F031F8AFF2090EBAE80F0013F0F8
:1001B000010F18BFFB1A43F001031847CC1F0000C2
:1001C000EC1F0000103A24BF78C878C1FAD8520753
:1001D00024BF30C830C144BF04680C6070470000C1
:1001E0000023002400250026103A28BF78C1FBD840
:1001F000520728BF30C148BF0B6070471FB501F0E0
:1002000025FF1FBD10B510BD00F0B9F81146FFF76E
:10021000F5FF00F0EEF800F0D7F803B4FFF7F2FFB7
:1002200003BC00F0DFF80000094880470948004798
:10023000FEE7FEE7FEE7FEE7FEE7FEE7FEE7FEE796
:10024000FEE7FEE704480549054A064B70470000F3
:10025000250600088901000828140020281A00201B
:100260002816002028160020EFF3108072B6704781
:1002700080F3108870473A4A1368012B04D04FF07E
:1002800001031360374A1060374A116037484FF056
:10029000805101607047EFF3108272B630480168F8
:1002A00051B34FF0000101602E48016891B1EFF3A6
:1002B00009811EF0100F08BF21ED108B21E9F00F0E
:1002C0004FF000041EF0100F08BF012441F8044D48
:1002D0000068016024490968096808C9B1E8F00F9D
:1002E000002B18BFB1EC108B81F309884EF0100E73
:1002F000002B18BF2EF0100E82F310884EF0040E63
:10030000704719490860EFF3148222F0040282F367
:10031000148814494FF00000086011494FF00100A3
:10032000086013484FF47F01D0F8002041EA020131
:1003300001600E484FF0805101600E48006800686F
:1003400080F3088861B662B67047EFF3098000B5A4
:1003500000F0D6FC5DF804EB4EF0040E7047000090
:10036000A8000020A0000020A400002004ED00E070
:1003700020ED00E008ED00E07047704770477546DB
:1003800000F02CF8AE4605006946534620F0070001
:10039000854618B020B5FFF755FFBDE820404FF067
:1003A00000064FF000074FF000084FF0000B21F05F
:1003B0000701AC46ACE8C009ACE8C009ACE8C0092C
:1003C000ACE8C0098D46704710B50446AFF3008015
:1003D0002046BDE81040FFF720BF000000487047EE
:1003E000C813002001491820ABBEFEE7260002001A
:1003F000704710B5FFF738FF01F000FE002010BD78
:1004000000BFFEE77047F0B50A4600210023002434
:1004100000BF3DE0012505FA01F3156805EA030474
:100420009C4234D105684F000326BE40B5430560A9
:1004300015794E00B5400668354305601579012DE4
:1004400002D01579022D16D185684F000326BE40D3
:10045000B543856055794E00B54086683543856063
:10046000456801268E40B5434560456896798E40C3
:10047000B6B235434560C5684F000326BE40B5435C
:10048000C560D5794E00B540C6683543C560491C86
:100490001029BFD3F0BD00001CB50121202000F0C1
:1004A00031F84FF48070009001208DF80400002096
:1004B0008DF8060003208DF8050001208DF8070057
:1004C00069460D48FFF79FFF4FF4007000906946A2
:1004D0000948FFF798FF4FF480600090694606488E
:1004E000FFF791FF4FF480700349183108804000F6
:1004F0000880400008801CBD0014024000BFFEE7D9
:100500007047000029B1064A12680243044B1A6082
:1005100004E0034A12688243014B1A6070470000EE
:1005200030380240704700000CB500200190009068
:100530003448006840F480303249086000BF3148D8
:10054000006800F4003000900198401C0190009871
:1005500018B90198B0F5A04FF1D12A48006800F40D
:10056000003010B10120009001E0002000900098C0
:10057000012846D123484030006840F0805021498E
:10058000403108602048006840F440401E4908603F
:100590001C48083000681B4908310860084600689C
:1005A00040F4004008600846006840F4A05008602D
:1005B0001648091F0860081F006840F08070091F76
:1005C000086000BF0F48006800F000700028F9D0F4
:1005D00040F205700E4908600A480830006820F0B3
:1005E00003000849083108600846006840F002002E
:1005F000086000BF03480830006800F00C000828BD
:10060000F8D10CBD0038024000700040195440077A
:10061000003C024010B500F021FC01F025FA00F08A
:100620002DFC10BD10B51548006840F4700013494A
:1006300008601348006840F001001149086000207C
:100640000F49083108600E4800680E4908400C49FF
:1006500008600D48091D0860081F006820F480200C
:10066000091F0860002006490C310860FFF75CFF95
:100670004FF0006001498039086010BD88ED00E04E
:1006800000380240FFFFF6FE1030002400BFFEE7F6
:10069000014609B900207047C8B220B1C8B20E4A5D
:1006A000105C401CF7E701F47F4028B10A48C1F311
:1006B0000722805C0930EEE701F47F0028B106488C
:1006C000C1F30742805C1130E5E7034800EB11609D
:1006D00000781930DFE70000562000080349086859
:1006E000884201D0012070470020FCE78C000020E8
:1006F0002DE9FC5F04468B4615461E46DDE90C9A43
:10070000DDE90E7804F114004060006000BF1C3485
:100710006560A660C4F80C90C4F810A02321D4E949
:10072000030200F019FDD4E9033C63441A1F0F4B88
:10073000D4E9010100F06AFB2060A776677600200B
:10074000E061C4F82080C4F8248060612076606590
:10075000A0651C3C00902346054A2146019004F107
:10076000440001F003FA0020BDE8FC9F8D1700084B
:10077000D91900082DE9F04704460E461746984659
:10078000DDF8209084F80990607A20F00100607212
:10079000E66127620020A062C4F82480002506E0FC
:1007A00004F1140101EBC50000F0DEFB6D1C012D0E
:1007B000F6DBBDE8F08710B50246002001460EE0EA
:1007C00002F1140303EBC100D0E900436360D0E9F8
:1007D000003423604060006000BF481C01460129CE
:1007E000EEDB10BD0EE04FF48070074908806420F6
:1007F00000F0C5FF4FF480700349891E0880642013
:1008000000F0BDFFEFE700001A14024010E04FF4C3
:100810000070084908804FF4FA7000F0B0FF4FF400
:1008200000700449891E08804FF4FA7000F0A7FF99
:10083000EDE700001A1402401CB51E200421CB0174
:100840000022CDE90010154915A000F070FF1649EF
:1008500008600846006820B10846006801F084F886
:1008600002E04FF0FF301CBD1E2005214FF4007345
:100870000022CDE900100D490DA000F058FF0E49EF
:1008800008600846006820B10846006801F06CF86E
:1008900002E04FF0FF30E6E70020E4E7E50700085C
:1008A0006C65643000000000140000200D08000892
:1008B0006C656431000000001800002010B504468B
:1008C00000F02CF9FFF7B8FF10BD000030B51A4C4E
:1008D000436824681919884215D04B889BB9174B77
:1008E0001B6899420FD0164B1B688B4201D1144BE9
:1008F00018604B684360104B1B68C31A0E4D4C6860
:100900002D682C44A3600C4C836824681A19824219
:1009100011D053887BB90A4B1B68834201D1084B25
:100920001A6043685360044B1B68D31A024D446835
:100930002D682C44A36030BD240000202800002036
:100940002C0000202DE9F04F85B00D469C46DDE9D6
:100950000F740E9B04F04008B8F1000F02D0DFF8CE
:10096000688101E0DFF86481CDF8008004F01008B0
:10097000B8F1000F01D024F0010404F00108B8F12F
:10098000000F02D04FF0300801E04FF02008C246BF
:10099000002604F00208B8F1000F11D0002A02DA94
:1009A0002D2652420CE004F00408B8F1000F01D0EB
:1009B0002B2605E004F00808B8F1000F00D020262F
:1009C000002142B94FF0300B8846491C0DF1040953
:1009D00009F808B01DE01AE0E146B9F10A0F08D1A4
:1009E0004FF00A0BB2FBFBFE0BFB1E28B2FBFBF227
:1009F00002E002F00F08120900BFDDF8009019F8BC
:100A000008B08846491C0DF1040909F808B0002A0D
:100A1000E2D1B94200DD0F46DB1B04F01108B8F14A
:100A2000000F10D116B1002B00DD5B1E06E0A842BE
:100A300003D84FF0200880F80080401CB3F1000874
:100A4000A3F10103F3DC26B1A84201D806705B1EB6
:100A5000401C04F01008B8F1000F0AD104E0A842CD
:100A600001D880F800A0401CB3F10008A3F10103F5
:100A7000F5DC06E0A84203D84FF0300880F800808B
:100A8000401CB8467F1E8845F4DC08E0A84205D823
:100A90000DF1040818F8018080F80080401CB1F1C5
:100AA0000008A1F10101F1DC06E0A84203D84FF0F3
:100AB000200880F80080401CB3F10008A3F1010376
:100AC000F3DC05B0BDE8F08F67210008562100086F
:100AD0001CB514200A214FF400730022CDE9001048
:100AE000044905A000F023FE0446204600F03CFF28
:100AF0001CBD0000BD0800086D61696E00000000AB
:100B000010B5044C02E020688047241D024884424E
:100B1000F9D310BD7C2100088021000810B5044CD9
:100B200002E020688047241D02488442F9D310BDAA
:100B3000802100088421000810B5FFF795FB0446CA
:100B400004480088401C00B2024908802046FFF794
:100B50008FFB10BD7C00002010B5FFF785FB04461D
:100B60000B480088401E00B2094908800846B0F9C9
:100B70000000002807DC002008802046FFF778FBF3
:100B800000F08CFB02E02046FFF772FB10BD000076
:100B90007C00002070B5054605B970BD1D48006891
:100BA000854203D31C480068854200D3F5E7A5F1D0
:100BB0000C044FF0FF31194800F03AFC608818B17E
:100BC0002088B0F5F55F08D015A000F0AFF92388B4
:100BD0006288214619A000F0A9F9002060804FF436
:100BE000F550208021480068844201D21F480460EB
:100BF000084960680968611A401A1D490968081A9D
:100C00001B4908602046FFF761FE044800F0F3FB33
:100C100000BFC2E72400002028000020A812002006
:100C2000746F206672656520612062616420646172
:100C3000746120626C6F636B3A0A00006D656D3AF7
:100C4000203078253038782C207573656420666CE8
:100C500061673A2025642C206D6167696320636FAA
:100C600064653A203078253034780A002C00002062
:100C70003400002000487047B00000200048704752
:100C8000B010002070B51A4800684FF47A72B0FBBB
:100C9000F2F1481EB0F1807F00D31BE0481E4FF0F8
:100CA000E022506150170F22002807DA13071D0EAB
:100CB000104B00F00F04241F1D5503E013071C0EFA
:100CC0000D4B1C5400BF00204FF0E0229061072024
:100CD000106100BFFFF7E0FBFFF712FFFFF7CEFF49
:100CE0000446FFF7C7FF0546214600F057FC70BDDC
:100CF0000000002018ED00E000E400E07047000074
:100D000070B504461948006838B12046174909688B
:100D10008847054605B970BD00BF15A0E16900F020
:100D200005F917A0A16900F001F919A0616900F0A7
:100D3000FDF81BA0216900F0F9F81DA0E16800F0A2
:100D4000F5F81FA0A16800F0F1F821A0616800F09B
:100D5000EDF823A0216800F0E9F800F0DDFD05467C
:100D6000294623A000F0E2F800BFFEE7AC00002017
:100D70007073723A203078253038780A000000000D
:100D80002070633A203078253038780A000000005F
:100D9000206C723A203078253038780A0000000044
:100DA0007231323A203078253038780A000000005D
:100DB0007230333A203078253038780A000000004D
:100DC0007230323A203078253038780A000000003E
:100DD0007230313A203078253038780A000000002F
:100DE0007230303A203078253038780A0000000020
:100DF00068617264206661756C74206F6E2074681F
:100E0000726561643A2025730A000000F0B504465B
:100E10000D461646301D20F00700443801460022DA
:100E200003E00D4F41F82270521C112AF9D34D6294
:100E30004FF0000CC1F828C0C1F82CC0C1F830C078
:100E4000C1F834C08B63CC634FF0807CC1F840C0E4
:100E500000270F60F0BD0000EFBEADDE10B5FFF75C
:100E600003FA044604480078401C034908702046F1
:100E7000FFF7FEF910BD00002000002010B5FFF7BD
:100E8000F3F9044604480078401E034908702046E0
:100E9000FFF7EEF910BD00002000002070B50446F9
:100EA0002068A0F11405284600F018FD002070BD50
:100EB0002DE9F04105460C469046204600F06AFDBB
:100EC000B8F1000F03D0B8F1010F23D105E004F110
:100ED0001401284600F060F81CE02E680FE0A6F12F
:100EE000140794F8350097F83510884206DA04F1B3
:100EF000140107F1140000F04FF802E03668AE422A
:100F0000EDD100BFAE4204D104F11401284600F037
:100F100043F800BF00BF0020BDE8F08110B50446D3
:100F200004F1140000F01AF8002010BD0FB438B519
:100F300005A800907F210848009B049A00F0C2FE9B
:100F400004467F2C00D97F240348FFF7D7FE0020FA
:100F5000009038BC5DF814FB28120020406000604F
:100F600070474060006070474060006070470268F2
:100F7000516002680A600160486070470268516011
:100F800002680A6001604860704702685160026848
:100F90000A600160486070474268116042684A60B8
:100FA00041600860704701460868884201D101200D
:100FB00070470020FCE701460868884201D1012003
:100FC00070470020FCE7D0E900215160D0E9001211
:100FD0001160406000607047D0E900215160D0E9A5
:100FE0000012116040600060704700002DE9F04180
:100FF000054615B90020BDE8F081E81C20F0030586
:101000004E480068854201D90020F4E70C2D00D23B
:101010000C254FF0FF314A4800F00AFA49480068B1
:1010200049490968461A7EE0474800688419608883
:10103000002874D106F10C006168081AA8426ED32A
:1010400006F10C006168091A05F11800814230D3DD
:1010500006F10C0000EB05083B48006800EB0807B0
:101060004FF4F55038800020788060687860BE606A
:10107000C4F80480012060803048796800680C3032
:10108000814205D03049786809680844C0F8088072
:101090002E48016805F10C0008442C4908602C48D2
:1010A00000680968884219D2284800682849086001
:1010B00014E001206080244960680968611A401AC0
:1010C00022490968084421490860214800680968E4
:1010D000884203D21D4800681D4908604FF4F5504E
:1010E000208018480068844212D107E01548006843
:1010F00040681549096808441249086011480068A9
:10110000408828B10F480068124909688842EDD12B
:101110000B4800F070F904F10C006CE7FFE70A4897
:1011200000683044466805480068401BB0423FF6FE
:101130007BAF034800F05FF900205CE7300000203F
:10114000A81200202C0000202400002034000020E1
:101150003800002028000020F0B50C460546E6B215
:10116000042A15D300F0030797B9014646EA06237F
:1011700043EA034304E008C108C108C108C1103AAA
:10118000102AF8D201E008C1121F042AFBD20D4632
:1011900001E005F8016B171EA2F10102F9D1F0BDC3
:1011A0002DE9F04105460F46284600F03BF806467B
:1011B000F068FFF71BFF044614B90020BDE8F0817A
:1011C00025720020607208223946204600F0CBF9D3
:1011D000FFF74AF8804604F10C01301DFFF7C7FE07
:1011E0004046FFF745F82046E8E770B50446FFF7AC
:1011F0003BF8054604F10C00FFF7E5FE2846FFF733
:1012000037F82046FFF7C6FC70BD70B50446FFF7FF
:101210002BF8054604F10C00FFF7D5FE2846FFF732
:1012200027F870BD024600210AE0074800EB0110D4
:101230000078904203D1044800EB01107047491C2C
:101240000429F2DB0020F9E73C0000202DE9F04101
:1012500004460D4616462846FFF7E4FF074645F0CC
:101260008000207208223146204600F07CF9FEF70B
:10127000FBFF804604F10C01381DFFF778FE404665
:10128000FEF7F6FFBDE8F0810146087A00F0800025
:1012900008B1012070470020FCE700002DE9F04173
:1012A000FEF7E2FF07461B48008868BB1A48006843
:1012B000FFF7EEF9461E194850F83600A0F1140465
:1012C0001748006884421BD016490E701448056800
:1012D00004601548007848B904F11C0105F11C00B0
:1012E000FEF7C9FF3846FEF7C3FF0CE004F11C010E
:1012F00005F11C00FEF7BFFF3846FEF7B9FF02E01C
:101300003846FEF7B5FF02E03846FEF7B1FFBDE80C
:10131000F08100007C00002088000020C81200201E
:1013200080000020840000202000002070B50446CA
:10133000FEF79AFF054614F8340F20F00F0040F036
:10134000010020706278343C0A4B03EBC20004F1C8
:1013500014014268116042684A604160086000BF41
:101360000549A06B09680843034908602846FEF751
:101370007FFF70BDC81200208800002070B50446B1
:10138000FEF772FF054604F11400D0E90021516018
:10139000D0E9001211604060006000BF94F8351081
:1013A000094A02EBC1000168814201D1012100E03C
:1013B000002129B10548A16B0068884303490860F2
:1013C0002846FEF755FF70BDC81200208800002097
:1013D0002DE9F04104460D4616461F462A460121D6
:1013E0002046FFF733FF2046FFF798FDA68367727C
:1013F0000020BDE8F08170B504460025FEF734FFFB
:10140000064604F11400FFF7CEFD28B904F11400DC
:10141000FFF744FD012502E0A08B401CA08330466D
:10142000FEF726FF012D01D1FFF738FF002070BD28
:1014300073B50546FEF718FF0646A88B002806DDA3
:10144000A88B401EA8833046FEF712FF28E00198C3
:1014500028B93046FEF70CFF6FF001007CBD00F0AC
:101460005BFA0446002020636A7A214605F11400E5
:10147000FFF71EFD0198002809DD01AA002104F1F3
:10148000440000F047FB04F1440000F087FB3046C5
:10149000FEF7EEFEFFF702FF206B08B1206BDDE7E1
:1014A0000020DBE708B509A0FFF740FD0AA0FFF721
:1014B0003DFD12A0032300221946009012A0FFF761
:1014C00035FD19A0FFF732FD08BD00000A205C20A1
:1014D0007C202F0A000000002D205254202D2020B7
:1014E000202020546872656164204F7065726174B9
:1014F000696E672053797374656D0A004D617920B8
:101500003232203230313900202F207C205C2020E4
:1015100020202025642E25642E2564206275696CA8
:10152000642025730A0000002032303036202D2040
:101530003230313820436F70797269676874206285
:10154000792072742D746872656164207465616DB0
:101550000A00000001460A4600E0521C10780028EC
:10156000FBD1501A704770B50346A2B118460C461D
:1015700000BF14F8016B00F8016B3EB902E00025D2
:1015800000F8015B551E2A1EF9D102E0551E2A1EE5
:10159000EFD100BF00BF184670BD00002DE9F0413B
:1015A00005460E46E81C20F0030726F00308B8F1B4
:1015B000180F09D9A8F11800B84205D3A8EB070005
:1015C00018381E49086006E0324629461CA0FFF77D
:1015D000ADFCBDE8F0812948076004684FF4F55080
:1015E0002080164800680C3060600020A060608099
:1015F0002249606809680844214908604FF4F550A1
:101600000968088001201E49096848800B48006865
:101610000C301B4909684860084800680C301849BC
:10162000096888600023012216A11848FFF7D0FE40
:10163000124800681649086000BFCAE73000002061
:101640006D656D20696E69742C206572726F7220F1
:10165000626567696E2061646472657373203078B7
:1016600025782C20616E6420656E6420616464724C
:1016700065737320307825780A000000240000206C
:10168000280000206865617000000000A81200209A
:101690002C00002010B500200B490880002405E034
:1016A0000A4901EBC400FFF75CFC641C202CF7DB4B
:1016B0001F20074908700020064908600649086095
:1016C0000648FFF74EFC10BD7C000020C812002029
:1016D0008400002080000020880000208C00002072
:1016E00070B508480068FEF7D3FF451E064850F85D
:1016F0003500A0F114040548046004F11C00FEF755
:1017000000FE70BD88000020C8120020800000206C
:1017100010B5002405E0044901EBC400FFF724FCE8
:10172000641C002CF7D010BD9400002070472DE9F8
:10173000FF5F06460F4690461D46DDE90EAB31467B
:101740000020FFF72DFD8146B9F1000F03D10020E5
:1017500004B0BDE8F09F2846FFF748FC044624B9D2
:101760004846FFF742FD0020F2E743463A4631463D
:1017700048468DE8300CFEF7BBFF4846E8E710B559
:101780000446204600F0CEF810BD000070B51248A7
:101790000468FEF769FD05462046FFF7EFFD0420CB
:1017A00084F8340004F1440000F0D0F92046FFF73B
:1017B0006BFD012805D1206F18B92046FFF725FDE4
:1017C00004E004F114010548FFF7D8FB2846FEF7B2
:1017D0004FFDFFF763FD70BD800000208C000020EE
:1017E00001E000F001F8FCE770B537E0FEF73CFDE2
:1017F0000546FEF773FF18B31B480068A0F11404F8
:1018000004F11400D0E900215160D0E90012116008
:101810004060006000BFFFF78FF9206F10B12046D5
:10182000216F88472046FFF72FFD012805D1FFF7DC
:1018300093F92846FEF71CFD70BDFFF78DF903E014
:101840002846FEF715FDF7E72846FEF711FDA06ACA
:10185000FFF7A0F92046FFF7C8FC00BFFEF73EFFE8
:101860000028C3D100BFE7E78C0000201FB520206F
:101870001F21C200074BCDE90032CDE90210002341
:10188000054A06A1074800F00FF8064800F06CF87A
:101890001FBD000028110020E11700087469646C66
:1018A00065000000B01000202DE9FF5F05460C46E2
:1018B00016461F46DDE910ABDDE90E892246002100
:1018C0002846FFF7C3FC3B463246214628468DE8B2
:1018D000000FFEF70DFF04B0BDE8F09F70B50446A1
:1018E00094F8340000F00F00022802D04FF0FF30CF
:1018F00070BDFEF7B9FC054604F11400FFF76CFB60
:1019000004F1440000F0C6F92846FEF7B1FC204679
:10191000FFF70CFD0020EBE701480068704700006E
:101920008000002031B5FEF79FFC05460D48046895
:10193000204600F02FF86A46002104F1440000F030
:10194000E9F804F1440000F029F92846FEF790FC7C
:10195000FFF7A4FC206B801C08B900202063002046
:1019600038BD00008000002010B504463434A07853
:1019700060706178012088406060022004F83409BA
:101980002046FFF7ABFFFFF7C7FF08B1FFF786FC64
:10199000002010BD70B5044694F8340000F00F002C
:1019A000012802D04FF0FF3070BDFEF75DFC054608
:1019B00094F8340020F00F0040F0020084F8340066
:1019C0002046FFF7DBFC04F1440000F063F92846F1
:1019D000FEF74EFC0020E7E770B5044625466FF0A1
:1019E0000100286305F11400FFF7F6FA2846FFF717
:1019F0009DFCFFF753FC70BD70B5FEF735FC054646
:101A00001448046894F8340000F00F0001281CD139
:101A1000D4E90510814218D004F11400FFF7DCFA74
:101A200094F835200C4B03EBC20004F1140142681A
:101A3000116042684A604160086000BF2846FEF7B6
:101A400017FCFFF72BFC002070BD2846FEF710FCAA
:101A50000020F9E780000020C8120020014800683B
:101A6000704700001C00002010B50A480068401CA8
:101A700008490860FFF750FF0446206C401E2064B0
:101A8000206C18B9E06B2064FFF7B6FF00F004F893
:101A900010BD00001C00002070B5FFF7DFFF0546F9
:101AA000FEF7E2FB064628E019480068A0F114049E
:101AB000A06A281A6FF0004188421DD22046FEF726
:101AC0007AFED4E907108847FFF7C8FF0546607A19
:101AD00000F0020058B1607A00F0010038B1607A7D
:101AE00020F001006072204600F058F805E0607AAE
:101AF00020F00100607200E004E00548FFF75BFAA7
:101B00000028D1D000BF3046FEF7B2FB70BD000008
:101B100094000020034649B1012904D0022908D0CD
:101B2000032910D10AE0586A10600CE0106858626E
:101B300009E0587A20F00200587204E0587A40F028
:101B40000200587200BF00BF0020704770B5044605
:101B5000FEF78AFB05462046FEF72DFE2846FEF7D7
:101B600087FB2046FFF751FB002070BD2DE9F843AD
:101B700007460C4615461E46DDE90889224609211E
:101B80003846FFF763FB4346324629463846CDF8D0
:101B90000090FEF7EFFDBDE8F88300002DE9F84363
:101BA0000546FEF761FB80462846FEF704FE687A8C
:101BB00020F0010068724046FEF75AFBFFF74EFF27
:101BC000696A0844A862FEF74FFB80462F4F0097D2
:101BD00000242AE019E05DF824201168142202EBA9
:101BE000C402881A826AAB6AD21A00D108E0826AFB
:101BF000AB6AD21A6FF000439A4200D20CE000BFE9
:101C00005DF8240000684DF824005DF8240007EB1F
:101C1000C40149688842DED100BF2CB15DF82400C0
:101C20000830611C4DF82100641C002CD2D01848EB
:101C30000068401C164908600846066805F1140152
:101C40000098FFF7A2F9022412E006F0030060B941
:101C5000C4F1010305F1140202EBC301C4F1010256
:101C60005DF82200FFF791F900E003E0B608641C7C
:101C7000012CEAD900BF687A40F001006872404642
:101C8000FEF7F6FA0020BDE8F8830000940000207B
:101C90009C00002070B50446607A00F0010010B985
:101CA0004FF0FF3070BDFEF7DFFA05462046FEF725
:101CB00082FD2846FEF7DCFA607A20F001006072AF
:101CC0000020EFE72DE9FF4F89B0804644460A988F
:101CD0004044461E464504D24FF0FF36A6EB0800AE
:101CE0000A906FE10B980078252806D0B44202D8FC
:101CF0000B9800782070641C61E1002526E00B98A9
:101D0000401C0B900B9800782D2802D145F010054F
:101D10001CE00B9800782B2802D145F0040515E053
:101D20000B980078202802D145F008050EE00B98AA
:101D30000078232802D145F0200507E00B980078B1
:101D4000302802D145F0010500E000E0D7E700BFF0
:101D50004FF0FF370B98007830380A2804D20BA8D0
:101D600000F061F907460EE00B9800782A280AD1A6
:101D70000B98401C0B900C9880C80C90002F02DA36
:101D80007F4245F010054FF0FF390B9800782E2860
:101D90001CD10B98401C0B900B98007830380A2807
:101DA00004D20BA800F03FF981460AE00B980078B6
:101DB0002A2806D10B98401C0B900C9850F8049BD5
:101DC0000C90B9F1000F01DA4FF0000900200490E7
:101DD0000B980078682803D00B9800786C2805D100
:101DE0000B98007804900B98401C0B900A200590EB
:101DF0000B9800786F2875D00CDC632813D004DCB6
:101E0000252870D058286FD18DE064286DD06928BE
:101E1000F9D18FE070286AD0732825D0752878D042
:101E20007828F0D182E005F0100040B904E0B44217
:101E300001D820202070641C781E071EF7DC0C9847
:101E400010F8041B0C90C8B20790B44201D8079850
:101E50002070641C04E0B44201D820202070641C6F
:101E6000781E071EF7DCAAE00C98006806900C9814
:101E7000001D0C90069808B95AA006900698FFF726
:101E800069FB8346B9F1000F02DDCB4500DDCB468F
:101E900005F0100048B904E0B44201D820202070B9
:101EA000641C38467F1E5845F6DC002008900BE085
:101EB000B44202D8069800782070641C0698401C32
:101EC00006900898401C089008985845F0DB04E0FC
:101ED000B44201D820202070641C38467F1E58452B
:101EE000F6DC6CE01CE015E028E022E0FFE7781C5F
:101EF00010B9082745F00105CDE9007902950C9845
:101F000004C8102331460C902046FEF71BFD044602
:101F100055E012E0B44201D825202070641C4EE048
:101F2000082005901DE045F0400500BF10200590F9
:101F300017E000BF45F0020500BF12E0B44201D82F
:101F400025202070641C0B98007830B1B44202D870
:101F50000B9800782070641C02E00B98401E0B90D8
:101F60002DE000BF04986C2807D10C9850F804AB02
:101F70000C9005F00200B8B116E0049868280BD167
:101F80000C9830F8041B1FFA81FA0C9005F002003F
:101F900050B10FFA8AFA07E00C9850F804AB0C9095
:101FA00005F0020000B100BFCDE90079029552466C
:101FB00031462046059BFEF7C5FC044600BF0B9842
:101FC000401C0B900B98007800287FF48BAEB44235
:101FD00001D8207001E000203070A4EB08000DB0A3
:101FE000BDE8F08F284E554C4C290000002070476A
:101FF00000207047002070470020704710B5FEF7A2
:1020000033F9FEF73FFEFFF74DFAFFF781FBFFF7CD
:1020100041FBFEF75DFDFFF789FBFFF727FCFFF7AC
:102020005FFB002010BD0146002009E00B685A1C30
:102030000A601A7800EB800302EB4302A2F1300041
:102040000A681278303A0A2AF0D370474FF040708D
:10205000E1EE100A704700000100020001000300D9
:102060000100020001000400010002000100030061
:102070000100020001000500010002000100030050
:102080000100020001000400010002000100030041
:10209000010002000100060001000200010003002F
:1020A0000100020001000400010002000100030021
:1020B0000100020001000500010002000100030010
:1020C0000100020001000400010002000100030001
:1020D00001000200010007000100020001000300EE
:1020E00001000200010004000100020001000300E1
:1020F00001000200010005000100020001000300D0
:1021000001000200010004000100020001000300C0
:1021100001000200010006000100020001000300AE
:1021200001000200010004000100020001000300A0
:10213000010002000100050001000200010003008F
:102140000100020001000400010002000100030080
:10215000010002000100303132333435363738396E
:102160006162636465660030313233343536373846
:102170003941424344454600F91F0008F11F000859
:10218000ED1F0008F51F0008A8210008000000202E
:10219000B0000000C401000858220008B000002070
:1021A00078190000E0010008007A030A000000002E
:1021B00000000000010203040607080900000000F7
:1021C000000000000000000000000000000000000F
:1021D00000000000000000000000000000000000FF
:1021E000000000000000000040000020400000202F
:1021F0007800000001000000500000205000002086
:1022000020000000040000006000002060000020AA
:102210003000000009000000700000207000002065
:102220002C00000000000000000000000000000082
:10223000000000000000000000000000000000009E
:10224000000000000000000000000000000000008E
:08225000000000000000000086
:040000050800018965
:00000001FF
