:020000040800F2
:10000000A81D002029020008D10900084B030008A0
:10001000CD090008870400080D1600080000000044
:10002000000000000000000000000000E50B0008D8
:10003000C90600080000000097020008150D00081E
:10004000430200084302000843020008430200087C
:10005000430200084302000843020008430200086C
:10006000CD0600080D0700084302000843020008FF
:10007000430200084302000843020008430200084C
:10008000430200084302000843020008430200083C
:10009000430200084302000843020008430200082C
:1000A000430200084302000843020008430200081C
:1000B000430200084302000843020008430200080C
:1000C00043020008430200084302000843020008FC
:1000D00043020008950F0008BD0F0008C11000087A
:1000E00043020008430200084302000843020008DC
:1000F00043020008430200084302000843020008CC
:1001000043020008430200084302000843020008BB
:100110008D0D0008910E00084302000843020008FC
:10012000430200084302000843020008430200089B
:10013000430200084302000843020008430200088B
:10014000430200084302000843020008430200087B
:10015000430200084302000843020008C5110008DA
:10016000430200084302000843020008430200085B
:10017000430200084302000843020008430200084B
:10018000430200084302000800F002F800F03CF8C7
:100190000AA090E8000C82448344AAF10107DA45E2
:1001A00001D100F031F8AFF2090EBAE80F0013F0F8
:1001B000010F18BFFB1A43F001031847F03300008A
:1001C00010340000103A24BF78C878C1FAD852071A
:1001D00024BF30C830C144BF04680C6070470000C1
:1001E0000023002400250026103A28BF78C1FBD840
:1001F000520728BF30C148BF0B6070471FB503F0DE
:1002000037F91FBD10B510BD00F004F91146FFF716
:10021000F5FF00F031F900F022F903B4FFF7F2FF27
:1002200003BC01F09FFA00000948804709480047D5
:10023000FEE7FEE7FEE7FEE7FEE7FEE7FEE7FEE796
:10024000FEE7FEE704480549054A064B70470000F3
:10025000250D000889010008A8170020A81D00200E
:10026000A8190020A8190020EFF3108072B670477B
:1002700080F3108870473A4A1368012B04D04FF07E
:1002800001031360374A1060374A116037484FF056
:10029000805101607047EFF3108272B630480168F8
:1002A00051B34FF0000101602E48016891B1EFF3A6
:1002B00009811EF0100F08BF21ED108B21E9F00F0E
:1002C0004FF000041EF0100F08BF012441F8044D48
:1002D0000068016024490968096808C9B1E8F00F9D
:1002E000002B18BFB1EC108B81F309884EF0100E73
:1002F000002B18BF2EF0100E82F310884EF0040E63
:10030000704719490860EFF3148222F0040282F367
:10031000148814494FF00000086011494FF00100A3
:10032000086013484FF47F01D0F8002041EA020131
:1003300001600E484FF0805101600E48006800686F
:1003400080F3088861B662B67047EFF3098000B5A4
:1003500001F046FD5DF804EB4EF0040E704700001E
:1003600020010020180100201C01002004ED00E005
:1003700020ED00E008ED00E070474FF00002042996
:10038000C0F0128010F0030C00F01F80CCF1040CC0
:10039000BCF1020F18BF00F8012BA8BF20F8022BF8
:1003A000A1EB0C0100F011B85FEAC17C24BF00F89A
:1003B000012B00F8012B48BF00F8012B7047704754
:1003C0007047704770474FF0000200B513469446DF
:1003D0009646203922BFA0E80C50A0E80C50B1F19D
:1003E0002001BFF4F7AF090728BFA0E80C5048BFB1
:1003F0000CC05DF804EB890028BF40F8042B08BF4F
:10040000704748BF20F8022B11F0804F18BF00F84A
:10041000012B7047754600F02BF8AE460500694683
:10042000534620F00700854618B020B5FFF70AFFB5
:10043000BDE820404FF000064FF000074FF00008E5
:100440004FF0000B21F00701AC46ACE8C009ACE866
:10045000C009ACE8C009ACE8C0098D46704710B5CA
:100460000446AFF300802046BDE81040FFF7D5BE3C
:10047000004870474817002010B5FFF7F5FE02F05E
:10048000ADFF002010BD00BFFEE700000246094B93
:100490009A4201D2084801E00648103801F00053A2
:1004A0001BB1064B0B40C36002E0044B0B40836062
:1004B0007047000010640240006002407D0F7D0F15
:1004C00021B1026842F00102026003E0026822F0FA
:1004D0000102026070470000016821F00101016023
:1004E0000021016041608160C160016121214161A1
:1004F0004A49884204D13D21484A103A91608CE033
:1005000046491831884205D14FF47461434A103A84
:10051000916082E041493031884205D14FF4741135
:100520003E4A103A916078E03C494831884205D112
:100530004FF07461394A103A91606EE0374960318A
:10054000884204D13649354A103AD16065E03349D2
:100550007831884204D13349304A103AD1605CE0A6
:100560002E499031884204D12F492C4A103AD1604B
:1005700053E02A49A831884205D14FF03D51274A1E
:10058000103AD16049E02949884204D13D21274AE7
:10059000083A116041E025491831884205D14FF4ED
:1005A0007461224A083A116037E0204930318842AC
:1005B00005D14FF474111D4A083A11602DE01B4912
:1005C0004831884205D14FF07461184A083A1160E9
:1005D00023E016496031884204D11149134A121FA1
:1005E00011601AE011497831884204D10D490F4A4F
:1005F000121F116011E00D499031884204D10A495F
:100600000A4A121F116008E00849A831884204D143
:100610004FF03D51054A121F1160704710600240B3
:100620003D000020400F002000003D2010640240EB
:1006300010B501F080034BB122B1436943F0800350
:10064000436103E0436923F08003436180290BD0B9
:100650002AB1036801F01E042343036004E0036829
:1006600001F01E04A343036010BD000010B500227A
:100670000268134B1A40CC680B6823434C69234330
:100680008C692343CC6923430C6A23434C6A23437C
:100690008C6A23434C6B23438C6B23431A430260C5
:1006A000426922F00702D1E90B3423431A43426125
:1006B0000B6943604B6883608B68C36010BD0000AA
:1006C0003F801CF0416070477047000010B501F09A
:1006D00035FC042000F040F870B10948006880F44F
:1006E000007007490860042206490748006801F0C5
:1006F000EBFE042000F02AF801F030FC10BD0000F1
:10070000141402406C0000203000002010B501F0ED
:1007100015FC082000F020F870B10948006880F44A
:10072000806007490860042206490748006801F014
:10073000CBFE082000F00AF801F010FC10BD00000C
:1007400014140240700000203000002001490860AD
:1007500070470000143C014001460020034A126823
:100760000A400AB1012000E000207047143C01401B
:10077000002123498279002A3AD00A461268036888
:100780009A430B461A600A1D126803689A430B1DB0
:100790001A60027911440A6803681A430A60184A09
:1007A0000832126803689A43154B08331A601A1D01
:1007B000126803689A43124B0C331A604279102A6C
:1007C0000ED11A1F126803681A430D4B08331A60C2
:1007D0001A1D126803681A43094B0C331A600DE0A6
:1007E0000749427911440A6803681A430A6005E020
:1007F000027911440A6803689A430A60704700004E
:10080000003C01401CB50121880300F067F902217A
:10081000042000F0E9F90420009000208DF8040085
:100820000C208DF8050001208DF806006846FFF7C2
:100830009FFF0321042000F0D7F90820009000203A
:100840008DF804000C208DF8050001208DF80600BD
:100850006846FFF78DFF1CBDF0B50A460021002356
:10086000002400BF3DE0012505FA01F3156805EA03
:1008700003049C4234D105684F000326BE40B543B3
:10088000056015794E00B540066835430560157959
:10089000012D02D01579022D16D185684F0003264F
:1008A000BE40B543856055794E00B54086683543F6
:1008B0008560456801268E40B54345604568967958
:1008C0008E40B6B235434560C5684F000326BE4032
:1008D000B543C560D5794E00B540C6683543C5609F
:1008E000491C1029BFD3F0BDF0B5002300244D07EB
:1008F000ED0E02FA05F3CE1000F1200555F8265052
:100900004E07F70E0F26BE40B543CF1000F120066C
:1009100046F82750CE1000F1200555F8265045EA3C
:100920000304CE1000F1200545F82640F0BD00007C
:100930001CB50121102000F0C1F804200090002017
:100940008DF8040001208DF8070069460548FFF77F
:1009500083FF0820009069460248FFF77DFFFFF7FC
:1009600051FF1CBD001002401CB50121202000F0E9
:10097000A5F84FF48070009001208DF8040000204D
:100980008DF8060003208DF8050001208DF8070082
:1009900069460D48FFF760FF4FF40070009069460C
:1009A0000948FFF759FF4FF48060009069460648F8
:1009B000FFF752FF4FF48070034918310880400060
:1009C0000880400008801CBD0014024000BFFEE704
:1009D000704708B54FF4A06000F066F825208DF848
:1009E000000001208DF801008DF802008DF8030051
:1009F000684600F01DF808208DF8000002208DF8F0
:100A0000010001208DF802008DF80300684600F017
:100A10000FF809208DF8000002208DF80100012058
:100A20008DF802008DF80300684600F001F808BD5B
:100A300070B5002100230F22C4781CB3174C246822
:100A400004F4E064C4F5E064C4F30721C1F10404D4
:100A5000E3B20A4144789C40E1B2847814402143D7
:100A60000C07210E0E4C05786155047804F01F0523
:100A70000124AC4005786D11AD0005F1E025C5F805
:100A8000004109E0047804F01F050124AC40054D45
:100A90000678761145F8264070BD00000CED00E0A8
:100AA00000E400E080E100E002490143024A1160F5
:100AB000704700000000FA050CED00E029B1064A7D
:100AC00012680243044B1A6004E0034A126882432E
:100AD000014B1A60704700003038024029B1064AC5
:100AE00012680243044B1A6004E0034A126882430E
:100AF000014B1A607047000044380240F0B50021F5
:100B000000220024022500260223324F3F6807F00E
:100B10000C0121B1042905D0082937D105E02E4F59
:100B2000076036E02D4F076033E02A4F3F1F3F68D4
:100B3000C7F38056274F3F1F3F6807F03F036EB152
:100B4000264FB7FBF3F7DFF88CC0ACF1040CDCF8F0
:100B500000C0CCF3881C07FB0CF40CE01E4FB7FB65
:100B6000F3F7DFF870C0ACF1040CDCF800C0CCF394
:100B7000881C07FB0CF4174F3F1F3F68C7F3014762
:100B80007F1C7D00B4FBF5F7076002E0124F0760A1
:100B900000BF00BF0F4F3F6807F0F0010909104F79
:100BA0007A5C0768D74047600A4F3F6807F4E05116
:100BB000890A0B4F7A5C4768D7408760054F3F68CA
:100BC00007F46041490B064F7A5C4768D740C7601D
:100BD000F0BD0000083802400024F40000127A0042
:100BE000140000207047000030B500228B071C0F56
:100BF0000F2303FA04F20B4B8C1053F82430934369
:100C0000084C8D1044F8253023468C1053F82430BE
:100C10008C07240F00FA04F42343024C8D1044F88F
:100C2000253030BD083801400CB5002001900090FF
:100C30003448006840F480303249086000BF3148D1
:100C4000006800F4003000900198401C019000986A
:100C500018B90198B0F5A04FF1D12A48006800F406
:100C6000003010B10120009001E0002000900098B9
:100C7000012846D123484030006840F08050214987
:100C8000403108602048006840F440401E49086038
:100C90001C48083000681B49083108600846006895
:100CA00040F4004008600846006840F4A050086026
:100CB0001648091F0860081F006840F08070091F6F
:100CC000086000BF0F48006800F000700028F9D0ED
:100CD00040F205700E4908600A480830006820F0AC
:100CE00003000849083108600846006840F0020027
:100CF000086000BF03480830006800F00C000828B6
:100D0000F8D10CBD00380240007000400854400784
:100D1000003C024010B501F011F902F095F801F025
:100D20001DF910BD10B51548006840F47000134956
:100D300008601348006840F0010011490860002075
:100D40000F49083108600E4800680E4908400C49F8
:100D500008600D48091D0860081F006820F4802005
:100D6000091F0860002006490C310860FFF75CFF8E
:100D70004FF0006001498039086010BD88ED00E047
:100D800000380240FFFFF6FE1030002470B540F23C
:100D900025513C4800F0BAFA002871D0394800F0DB
:100DA0006FFBC4B238488079222806D0232816D099
:100DB000252850D0262861D123E0242C09D132489F
:100DC000C07832490C5401202F49C8702320887103
:100DD00004E000202C49C870222088714FE03A2C92
:100DE00009D12948C07829490C5402202649C870E5
:100DF0002620887104E000202349C87022208871D1
:100E00003DE02148C07821490C541F48C078401C5F
:100E10001D49C8700846C078402812DD002506E04C
:100E200000201949C978194A5054681CC5B216489F
:100E3000C078A842F4DC00201349C87022208871D1
:100E400008E00D2C03D125200F49887102E02620EF
:100E50000D49887113E00C48C0780C490C540A48BD
:100E6000C078401C0849C8700A2C02D12F20887114
:100E700002E026200449887101E001E000BF00BFC4
:100E800070BD0000004C004050000020A81200205F
:100E900070B540F225513C4800F038FA002871D076
:100EA000394800F0EDFAC4B238488079222806D0DB
:100EB000232816D0252850D0262861D123E0242CC1
:100EC00009D13248C07832490C5401202F49C870EA
:100ED0002320887104E000202C49C87022208871EA
:100EE0004FE03A2C09D12948C07829490C540220F6
:100EF0002649C8702620887104E000202349C87064
:100F0000222088713DE02148C07821490C541F48B7
:100F1000C078401C1D49C8700846C078402812DDC2
:100F2000002506E000201949C978194A5054681C68
:100F3000C5B21648C078A842F4DC00201349C87036
:100F40002220887108E00D2C03D125200F498871DB
:100F500002E026200D49887113E00C48C0780C4946
:100F60000C540A48C078401C0849C8700A2C02D1A9
:100F70002F20887102E026200449887101E001E0F9
:100F800000BF00BF70BD00000050004058000020AE
:100F90002813002010B500F0D1FF40F2244106488C
:100FA00000F0B4F920B100F009FB034800F068FA42
:100FB00000F0D4FF10BD00000010014070B540F2F9
:100FC00025513C4800F0A2F9002871D0394800F0C2
:100FD00057FAC4B238488079222806D0232816D080
:100FE000252850D0262861D123E0242C09D132486D
:100FF000C07832490C5401202F49C87023208871D1
:1010000004E000202C49C870222088714FE03A2C5F
:1010100009D12948C07829490C5402202649C870B2
:101020002620887104E000202349C870222088719E
:101030003DE02148C07821490C541F48C078401C2D
:101040001D49C8700846C078402812DD002506E01A
:1010500000201949C978194A5054681CC5B216486D
:10106000C078A842F4DC00201349C870222088719F
:1010700008E00D2C03D125200F49887102E02620BD
:101080000D49887113E00C48C0780C490C540A488B
:10109000C078401C0849C8700A2C02D12F208871E2
:1010A00002E026200449887101E001E000BF00BF92
:1010B00070BD00000044004040000020A811002046
:1010C00070B540F225513C4800F020F9002871D05D
:1010D000394800F0D5F9C4B238488079222806D0C2
:1010E000232816D0252850D0262861D123E0242C8F
:1010F00009D13248C07832490C5401202F49C870B8
:101100002320887104E000202C49C87022208871B7
:101110004FE03A2C09D12948C07829490C540220C3
:101120002649C8702620887104E000202349C87031
:10113000222088713DE02148C07821490C541F4885
:10114000C078401C1D49C8700846C078402812DD90
:10115000002506E000201949C978194A5054681C36
:10116000C5B21648C078A842F4DC00201349C87004
:101170002220887108E00D2C03D125200F498871A9
:1011800002E026200D49887113E00C48C0780C4914
:101190000C540A48C078401C0849C8700A2C02D177
:1011A0002F20887102E026200449887101E001E0C7
:1011B00000BF00BF70BD0000004800404800002094
:1011C0002812002070B540F225513C4800F09EF8EE
:1011D000002871D0394800F053F9C4B238488079FA
:1011E000222806D0232816D0252850D0262861D1C1
:1011F00023E0242C09D13248C07832490C54012014
:101200002F49C8702320887104E000202C49C87041
:10121000222088714FE03A2C09D12948C078294909
:101220000C5402202649C8702620887104E0002052
:101230002349C870222088713DE02148C0782149A7
:101240000C541F48C078401C1D49C8700846C0781F
:10125000402812DD002506E000201949C978194A06
:101260005054681CC5B21648C078A842F4DC00206F
:101270001349C8702220887108E00D2C03D1252065
:101280000F49887102E026200D49887113E00C484F
:10129000C0780C490C540A48C078401C0849C870F2
:1012A0000A2C02D12F20887102E02620044988717F
:1012B00001E001E000BF00BF70BD0000001401406C
:1012C00060000020A813002021B1828942F400525E
:1012D000828104E082894DF6FF731A408281704753
:1012E0001AB1838A0B43838202E0838A8B43838211
:1012F000704702460020B1F5007F00D100BF13887F
:101300000B400BB1012000E00020704770B5024691
:10131000002400230025002040F66A16B14200D1C7
:1013200000BFC1F3421501F01F03012606FA03F3C3
:10133000012D02D19689334006E0022D02D1168A92
:10134000334001E0968A33400C12012606FA04F479
:101350001688344013B10CB1012000E0002070BDAC
:10136000F0B50346002400260025002040F66A1749
:10137000B94200D100BF1846C1F3421401F01F0664
:10138000012707FA06F5012C01D10C3004E0022CEC
:1013900001D1103000E014301AB107682F43076004
:1013A00002E00768AF430760F0BD00002DE9FF478A
:1013B00005460E460024A14600BFA046B08900B1F4
:1013C00000BF2C8A24F44054F08804432C82AC895A
:1013D00041F20C608443B088318908437189084325
:1013E0000443AC81AC8A24F44074B0890443AC82D9
:1013F0006846FFF783FB2048854202D01F4885429C
:1014000002D1DDF80C9001E0DDF80890A88900F425
:10141000004040B109EBC90000EB091031684900F8
:10142000B0FBF1F707E009EBC90000EB09103168E8
:101430008900B0FBF1F76420B7FBF0F0040120094C
:10144000642101FB1078A88900F4004040B13220EB
:1014500000EBC800B0FBF1F000F00700044308E027
:10146000322000EB08106421B0FBF1F000F00F0017
:1014700004432C81BDE8FF870010014000140140A7
:1014800001468888C0F308007047C1F308028280D3
:101490007047000000B58FB001218805FFF70EFBF3
:1014A0001B48FFF719F84FF00060009019480190B1
:1014B00019480290002003904020049000200590DD
:1014C0004FF4806006900020079008904FF48070E1
:1014D00009904FF440300A9000200B9003200C90AC
:1014E00000200D900E9069460948FFF7BFF84FF0B5
:1014F00081510748FEF7CAFF012204210448FFF783
:1015000097F801210248FEF7DBFF0FB000BD000095
:1015100040640240041001402811002010B586B03C
:10152000044601210846FFF7C9FA01211020FFF700
:10153000D5FA072209211F48FFF7D6F907220A2109
:101540001C48FFF7D1F94FF4C060049002208DF8D9
:1015500014008DF8150000208DF8160001208DF87C
:10156000170004A91348FFF777F900940020ADF89D
:101570000400ADF80600ADF80800ADF80C000C2032
:10158000ADF80A0069460C48FFF710FF012240F24F
:1015900024410948FFF7E4FEFFF77CFF01224021C8
:1015A0000548FFF79DFE01210348FFF78DFE06B0B9
:1015B00010BD0000000002400010014010B50021E5
:1015C0000A48FEF77DFF4FF081510848FEF75EFFA5
:1015D00040210648FFF776F801210448FEF770FF26
:1015E0000348006801F0F6F810BD000040640240B6
:1015F0003400002010B54FF4E130FFF78FFF0020DA
:1016000001490871C87010BD3800002000BFFEE716
:10161000014609B900207047C8B220B1C8B20E4ACD
:10162000105C401CF7E701F47F4028B10A48C1F381
:101630000722805C0930EEE701F47F0028B10648FC
:10164000C1F30742805C1130E5E7034800EB11600D
:1016500000781930DFE700007A3400080349086891
:10166000884201D0012070470020FCE704010020DF
:101670002DE9FC5F04468B4615461E46DDE90C9AB3
:10168000DDE90E7804F114004060006000BF1C34F6
:101690006560A660C4F80C90C4F810A02321D4E9BA
:1016A000030200F021FED4E9033C63441A1F0F4BF0
:1016B000D4E9010100F01AFC2060A77667760020CB
:1016C000E061C4F82880C4F82C8060612076E06571
:1016D00020661C3C00902346054A2146019004F1F7
:1016E0004C0001F033FC0020BDE8FC9F6D2B00088E
:1016F000B92D00082DE9F04704460E4617469846D6
:10170000DDF8209084F80990607A20F00100607282
:10171000E66127620020A062C4F82480002506E06C
:1017200004F1140101EBC50000F0A8FC6D1C012DB3
:10173000F6DBBDE8F08710B50246002001460EE05A
:1017400002F1140303EBC100D0E900436360D0E968
:10175000003423604060006000BF481C014601293E
:10176000EEDB10BD00BF704708B5002414E04FF059
:10177000FF33042269460948006800F027FE04464A
:1017800024B907A0009900F05BFC02E00AA000F079
:1017900057FC0A2001F0E3F9E9E7000030000020DF
:1017A000B4A5B7A2D6D0B6CFB5C4CAC74B45592544
:1017B00064210A0A00000000CAFDBEDDBDD3CAD5FF
:1017C000B3F6B4EDA3A10A0A0000000009E0054841
:1017D000006880F48070034908604FF4FA7001F0EB
:1017E000BEF9F4E7141402401CB536A000F028FC42
:1017F00035A000F025FC33A000F022FC00230222DB
:10180000042135A000F094FD3549086008460068C1
:1018100010B134A000F014FC0022114636A000F0F4
:10182000B1FF384908600846006810B136A000F0E2
:1018300007FC142005214FF400730022CDE90010AD
:10184000364937A001F063F9364908600846006858
:1018500020B10846006801F077FA02E04FF0FF304F
:101860001CBD142001214B020022CDE900102E499D
:101870002EA001F04CF92E4908600846006820B1FE
:101880000846006801F060FA02E04FF0FF30E7E739
:10189000142002210B020022CDE90010254926A0C8
:1018A00001F035F9264908600846006820B108466D
:1018B000006801F049FA02E04FF0FF30D0E7002065
:1018C000CEE700000A0A0000D6D0B6CFB9DCC0EDE2
:1018D000CAB5D1E90A000000746573745F6D7100C8
:1018E00030000020CFFBCFA2B6D3C1D0B4B4BDA886
:1018F000B3C9B9A6210A0A00746573745F73656D74
:101900000000000034000020D0C5BAC5C1BFB4B487
:10191000BDA8B3C9B9A6210A0A000000CD17000866
:101920006C65640024000020691700086B6579006D
:10193000280000202D3400087573617274000000C7
:101940002C00002010B5044600F02CF9FFF74CFFE6
:1019500010BD000030B51A4C43682468191988423C
:1019600015D04B889BB9174B1B6899420FD0164B6B
:101970001B688B4201D1144B18604B684360104BBD
:101980001B68C31A0E4D4C682D682C44A3600C4C88
:10199000836824681A19824211D053887BB90A4B94
:1019A0001B68834201D1084B1A6043685360044BA3
:1019B0001B68D31A024D44682D682C44A36030BDC7
:1019C0007C00002080000020840000202DE9F04FE2
:1019D00085B00D469C46DDE90F740E9B04F040086F
:1019E000B8F1000F02D0DFF8688101E0DFF8648110
:1019F000CDF8008004F01008B8F1000F01D024F0F9
:101A0000010404F00108B8F1000F02D04FF03008D3
:101A100001E04FF02008C246002604F00208B8F1A9
:101A2000000F11D0002A02DA2D2652420CE004F0F9
:101A30000408B8F1000F01D02B2605E004F00808D7
:101A4000B8F1000F00D02026002142B94FF0300B32
:101A50008846491C0DF1040909F808B01DE01AE098
:101A6000E146B9F10A0F08D14FF00A0BB2FBFBFEB9
:101A70000BFB1E28B2FBFBF202E002F00F0812097A
:101A800000BFDDF8009019F808B08846491C0DF138
:101A9000040909F808B0002AE2D1B94200DD0F4676
:101AA000DB1B04F01108B8F1000F10D116B1002BA8
:101AB00000DD5B1E06E0A84203D84FF0200880F846
:101AC0000080401CB3F10008A3F10103F3DC26B150
:101AD000A84201D806705B1E401C04F01008B8F143
:101AE000000F0AD104E0A84201D880F800A0401CF1
:101AF000B3F10008A3F10103F5DC06E0A84203D826
:101B00004FF0300880F80080401CB8467F1E8845A2
:101B1000F4DC08E0A84205D80DF1040818F80180AB
:101B200080F80080401CB1F10008A1F10101F1DC56
:101B300006E0A84203D84FF0200880F80080401C3F
:101B4000B3F10008A3F10103F3DC05B0BDE8F08FA9
:101B50008B3500087A3500081CB514200A214FF493
:101B600000730022CDE90010044905A000F0CFFF6A
:101B70000446204601F0E8F81CBD000045190008A5
:101B80006D61696E0000000010B5044C02E0206831
:101B90008047241D02488442F9D310BDA0350008B7
:101BA000A435000810B5044C02E020688047241DCD
:101BB00002488442F9D310BDA4350008A8350008B6
:101BC00010B5FEF751FB044604480088401C00B2E3
:101BD000024908802046FEF74BFB10BDF4000020B0
:101BE00010B5FEF741FB04460B480088401E00B2CA
:101BF000094908800846B0F90000002807DC0020E9
:101C000008802046FEF734FB00F022FD02E020466B
:101C1000FEF72EFB10BD0000F400002070B5054655
:101C200005B970BD1D480068854203D31C48006893
:101C3000854200D3F5E7A5F10C044FF0FF311948B8
:101C400000F0E5FD608818B12088B0F5F55F08D098
:101C500015A000F0F5F923886288214619A000F04C
:101C6000EFF9002060804FF4F55020802148006893
:101C7000844201D21F480460084960680968611AFB
:101C8000401A1D490968081A1B4908602046FFF7D9
:101C900061FE044800F09EFD00BFC2E77C0000200A
:101CA0008000002028160020746F20667265652071
:101CB0006120626164206461746120626C6F636B97
:101CC0003A0A00006D656D3A203078253038782C5E
:101CD000207573656420666C61673A2025642C204A
:101CE0006D6167696320636F64653A2030782530E1
:101CF00034780A00840000208C00002000487047DF
:101D000028010020004870472811002070B51D48A8
:101D100000684FF47A72B0FBF2F1481EB0F1807F98
:101D200000D31BE0481E4FF0E022506150170F22F5
:101D3000002807DA13071D0E134B00F00F04241FB1
:101D40001D5503E013071C0E104B1C5400BF002050
:101D50004FF0E02290610720106100BFFEF739FECE
:101D6000FEF702FEFFF746FCFEF7E2FDFFF70CFF71
:101D7000FFF7C8FF0446FFF7C1FF0546214600F004
:101D8000FDFD70BD0000002018ED00E000E400E063
:101D900010B50446FFF714FF19E020780A280AD18D
:101DA0000D210E48FFF771FB00BF80210B48FFF7A4
:101DB000A0FA0028F9D014F8011B0848FFF765FBCA
:101DC00000BF80210548FFF794FA0028F9D0207859
:101DD0000028E2D1FFF704FF10BD00000010014011
:101DE00070B504461948006838B12046174909689B
:101DF0008847054605B970BD00BF15A0E16900F030
:101E00001FF917A0A16900F01BF919A0616900F082
:101E100017F91BA0216900F013F91DA0E16800F07B
:101E20000FF91FA0A16800F00BF921A0616800F074
:101E300007F923A0216800F003F900F05DFF0546D3
:101E4000294623A000F0FCF800BFFEE72401002093
:101E50007073723A203078253038780A000000001C
:101E60002070633A203078253038780A000000006E
:101E7000206C723A203078253038780A0000000053
:101E80007231323A203078253038780A000000006C
:101E90007230333A203078253038780A000000005C
:101EA0007230323A203078253038780A000000004D
:101EB0007230313A203078253038780A000000003E
:101EC0007230303A203078253038780A000000002F
:101ED00068617264206661756C74206F6E2074682E
:101EE000726561643A2025730A000000F0B504466B
:101EF0000D461646301D20F00700443801460022EA
:101F000003E00D4F41F82270521C112AF9D34D62A3
:101F10004FF0000CC1F828C0C1F82CC0C1F830C087
:101F2000C1F834C08B63CC634FF0807CC1F840C0F3
:101F300000270F60F0BD0000EFBEADDE10B5FEF76C
:101F400093F9044604480078401C03490870204671
:101F5000FEF78EF910BD00007800002010B5FEF7E6
:101F600083F9044604480078401E0349087020465F
:101F7000FEF77EF910BD00007800002070B5044621
:101F80002068A0F11405284600F098FE002070BDDE
:101F900070B505460EE0FEF767F906462868A0F121
:101FA00014044FF0FF302063204600F087FE3046D7
:101FB000FEF75EF9284600F080F80028EBD00020FC
:101FC00070BD2DE9F04105460C469046204600F0D4
:101FD000D1FEB8F1000F03D0B8F1010F23D105E015
:101FE00004F11401284600F061F81CE02E680FE0AF
:101FF000A6F1140794F8350097F83510884206DAF0
:1020000004F1140107F1140000F050F802E0366802
:10201000AE42EDD100BFAE4204D104F11401284616
:1020200000F044F800BF00BF0020BDE8F08110B50B
:10203000044604F1140000F01BF8002010BD00005D
:102040000FB438B505A800907F210848009B049A7A
:1020500001F028F804467F2C00D97F240348FFF7BD
:1020600097FE0020009038BC5DF814FBA8150020F6
:1020700040600060704740600060704740600060F2
:1020800070470268516002680A60016048607047EA
:102090000268516002680A60016048607047026827
:1020A000516002680A6001604860704742681160D0
:1020B00042684A604160086070470146086888428B
:1020C00001D1012070470020FCE7014608688842E2
:1020D00001D1012070470020FCE7D0E900215160C8
:1020E000D0E900121160406000607047D0E9002123
:1020F0005160D0E90012116040600060704700003C
:102100002DE9F041054615B90020BDE8F081E81C35
:1021100020F003054E480068854201D90020F4E70D
:102120000C2D00D20C254FF0FF314A4800F06FFB18
:102130004948006849490968461A7EE047480068EE
:1021400084196088002874D106F10C006168081AAF
:10215000A8426ED306F10C006168091A05F1180057
:10216000814230D306F10C0000EB05083B480068C3
:1021700000EB08074FF4F550388000207880606845
:102180007860BE60C4F804800120608030487968BF
:1021900000680C30814205D03049786809680844ED
:1021A000C0F808802E48016805F10C0008442C494D
:1021B00008602C4800680968884219D228480068DD
:1021C0002849086014E0012060802449606809689B
:1021D000611A401A224909680844214908602148C7
:1021E00000680968884203D21D4800681D490860DC
:1021F0004FF4F550208018480068844212D107E05F
:102200001548006840681549096808441249086083
:1022100011480068408828B10F48006812490968D1
:102220008842EDD10B4800F0D5FA04F10C006CE7C0
:10223000FFE70A4800683044466805480068401BCC
:10224000B0423FF67BAF034800F0C4FA00205CE7E1
:102250008800002028160020840000207C00002038
:102260008C00002090000020800000202DE9F0412B
:102270000F46164604463D463346102B28D305F03C
:10228000030C04F003084CEA080CBCF1000F1FD14A
:1022900021462A4610E052F804CB41F804CB52F80C
:1022A00004CB41F804CB52F804CB41F804CB52F8EC
:1022B00004CB41F804CB103B102BECD204E052F8D5
:1022C00004CB41F804CB1B1F042BF8D20C46154657
:1022D00003E015F801CB04F801CBB3F1000CA3F136
:1022E0000103F6D1BDE8F081F0B50C460546E6B233
:1022F000042A15D300F0030797B9014646EA0623DE
:1023000043EA034304E008C108C108C108C1103A08
:10231000102AF8D201E008C1121F042AFBD20D4690
:1023200001E005F8016B171EA2F10102F9D1F0BD21
:102330002DE9F0470746884691469A4639460520DA
:1023400000F008F9044614B92046BDE8F08784F887
:1023500009A02046FFF76BFE08F1030020F0030000
:102360002084A4F82290218C091D628C01FB02F0CC
:10237000FFF7C6FEE061E06920B9204600F018F8DA
:102380000020E2E70020A062E0622063002508E070
:10239000208C001DE16905FB0016206B3060266370
:1023A0006D1C608CA842F3DC0020A0842046CCE7A2
:1023B00010B5044604F11400FFF7EAFDE069FFF7E9
:1023C0002DFC204600F0EBF8002010BD2DE9FF4762
:1023D00004460F4690464FF0000900F08DFC05467C
:1023E000FDF742FF8246A08C48B9039838B95046A1
:1023F000FDF73EFF6FF0010004B0BDE8F0873CE060
:1024000000202863039830B95046FDF731FF6FF084
:1024100001002863F0E7627A294604F11400FFF70F
:10242000D0FD039800280CDD00F008FD814603AACA
:10243000002105F14C0000F05DFD05F14C0000F0BD
:102440009DFD5046FDF714FF00F002F9286B08B11E
:10245000286BD1E7FDF708FF8246039800280CDDC2
:1024600000F0ECFCA0EB09090398A0EB0900039035
:102470000398002801DA00200390A08C0028BFD028
:10248000A66A3068A062E06AB04201D10020E06232
:10249000A08C401EA0845046FDF7EAFE208C4045EB
:1024A00001D2208C00E040460246311D3846FFF73D
:1024B000DDFEFDF7D9FE8246206B30602663504674
:1024C000FDF7D6FE002097E72DE9F04104460F46C0
:1024D0001646208CB04203D24FF0FF30BDE8F081A9
:1024E000FDF7C2FE8046256B2DB94046FDF7C0FEC4
:1024F0006FF00200F2E7286820634046FDF7B8FE5F
:102500000020286032463946281DFFF7AFFEFDF750
:10251000ABFE8046E06A08B1E06A0560E562A06A49
:1025200000B9A562A08C401CA08404F11400FFF740
:10253000C4FD50B904F11400FFF720FD4046FDF73B
:1025400097FE00F085F80020C8E74046FDF790FEB2
:102550000020C3E72DE9F04105460F46284600F06C
:102560003BF80646F068FFF7CBFD044614B900209F
:10257000BDE8F081257200206072082239462046AD
:1025800000F0E1F9FDF770FE804604F10C01301D0A
:10259000FFF777FD4046FDF76BFE2046E8E770B594
:1025A0000446FDF761FE054604F10C00FFF795FDBA
:1025B0002846FDF75DFE2046FFF730FB70BD70B585
:1025C0000446FDF751FE054604F10C00FFF785FDBA
:1025D0002846FDF74DFE70BD024600210AE007487F
:1025E00000EB01100078904203D1044800EB011089
:1025F0007047491C0629F2DB0020F9E7940000200F
:102600002DE9F04104460D4616462846FFF7E4FF43
:10261000074645F08000207208223146204600F02F
:1026200092F9FDF721FE804604F10C01381DFFF7F9
:1026300028FD4046FDF71CFEBDE8F0810146087A02
:1026400000F0800008B1012070470020FCE7000086
:102650002DE9F041FDF708FE07461B48008868BBDE
:102660001A480068FEF7D4FF461E194850F8360095
:10267000A0F114041748006884421BD016490E705C
:102680001448056804601548007848B904F11C0135
:1026900005F11C00FDF7EFFD3846FDF7E9FD0CE004
:1026A00004F11C0105F11C00FDF7E5FD3846FDF7BE
:1026B000DFFD02E03846FDF7DBFD02E03846FDF7BE
:1026C000D7FDBDE8F0810000F400002000010020EB
:1026D00048160020F8000020FC00002078000020B0
:1026E00070B50446FDF7C0FD054614F8340F20F020
:1026F0000F0040F0010020706278343C0A4B03EB7D
:10270000C20004F114014268116042684A604160ED
:10271000086000BF0549A06B0968084303490860C9
:102720002846FDF7A5FD70BD4816002000010020D9
:1027300070B50446FDF798FD054604F11400D0E994
:1027400000215160D0E9001211604060006000BFBC
:1027500094F83510094A02EBC1000168814201D1A9
:10276000012100E0002129B10548A16B00688843E0
:10277000034908602846FDF77BFD70BD4816002020
:10278000000100202DE9F04105460E461746294676
:102790000120FFF7DFFE044614B92046BDE8F081B2
:1027A0002046FFF744FCA68367722046F6E72DE932
:1027B000F04104460D4616461F462A460121204692
:1027C000FFF71EFF2046FFF732FCA683677200204A
:1027D000BDE8F08170B504460025FDF745FD0646CD
:1027E00004F11400FFF769FC28B904F11400FFF7A5
:1027F000C5FB012502E0A08B401CA0833046FDF7FD
:1028000037FD012D01D1FFF723FF002070BD73B507
:102810000546FDF729FD0646A88B002806DDA88B96
:10282000401EA8833046FDF723FD28E0019828B913
:102830003046FDF71DFD6FF001007CBD00F05CFA35
:102840000446002020636A7A214605F11400FFF750
:10285000B8FB0198002809DD01AA002104F14C0011
:1028600000F048FB04F14C0000F088FB3046FDF717
:10287000FFFCFFF7EDFE206B08B1206BDDE70020C9
:10288000DBE7000008B509A0FFF7DAFB0AA0FFF7B5
:10289000D7FB12A0032300221946009012A0FFF7D5
:1028A000CFFB19A0FFF7CCFB08BD00000A205C207D
:1028B0007C202F0A000000002D205254202D2020C3
:1028C000202020546872656164204F7065726174C5
:1028D000696E672053797374656D0A004D617920C4
:1028E0003234203230313900202F207C205C2020EF
:1028F00020202025642E25642E2564206275696CB5
:10290000642025730A0000002032303036202D204C
:102910003230313820436F70797269676874206291
:10292000792072742D746872656164207465616DBC
:102930000A00000001460A4600E0521C10780028F8
:10294000FBD1501A704770B50346A2B118460C4629
:1029500000BF14F8016B00F8016B3EB902E00025DE
:1029600000F8015B551E2A1EF9D102E0551E2A1EF1
:10297000EFD100BF00BF184670BD00002DE9F04147
:1029800005460E46E81C20F0030726F00308B8F1C0
:10299000180F09D9A8F11800B84205D3A8EB070011
:1029A00018381E49086006E0324629461CA0FFF789
:1029B00047FBBDE8F0812948076004684FF4F550F3
:1029C0002080164800680C3060600020A0606080A5
:1029D0002249606809680844214908604FF4F550AD
:1029E0000968088001201E49096848800B48006872
:1029F0000C301B4909684860084800680C301849C9
:102A0000096888600023012216A11848FFF7CFFE4D
:102A1000124800681649086000BFCAE78800002015
:102A20006D656D20696E69742C206572726F7220FD
:102A3000626567696E2061646472657373203078C3
:102A400025782C20616E6420656E64206164647258
:102A500065737320307825780A0000007C00002020
:102A600080000020686561700000000028160020CA
:102A70008400002010B500200B490880002405E0E8
:102A80000A4901EBC400FFF7F6FA641C202CF7DBBF
:102A90001F200749087000200649086006490860A1
:102AA0000648FFF7E8FA10BDF400002048160020A1
:102AB000FC000020F800002000010020040100209C
:102AC00070B508480068FEF7A3FD451E064850F89B
:102AD0003500A0F114040548046004F11C00FDF762
:102AE00010FC70BD0001002048160020F8000020F6
:102AF00010B5002405E0044901EBC400FFF7BEFA5D
:102B0000641C002CF7D010BD0C01002070472DE98B
:102B1000FF5F06460F4690461D46DDE90EAB314687
:102B20000020FFF717FD8146B9F1000F03D1002007
:102B300004B0BDE8F09F2846FFF7E2FA044624B946
:102B40004846FFF72CFD0020F2E743463A4631465F
:102B500048468DE8300CFEF78BFD4846E8E710B597
:102B60000446204600F0CEF810BD000070B51248B3
:102B70000468FDF779FB05462046FFF7D9FD0420E0
:102B800084F8340004F14C0000F0D0F92046FFF73F
:102B900055FD012805D1A06F18B92046FFF70FFD9C
:102BA00004E004F114010548FFF772FA2846FDF726
:102BB0005FFBFFF74DFD70BDF80000200401002011
:102BC00001E000F001F8FCE770B537E0FDF74CFBE1
:102BD0000546FEF743FD18B31B480068A0F1140436
:102BE00004F11400D0E900215160D0E90012116015
:102BF0004060006000BFFEF7E3FFA06F10B1204609
:102C0000A16F88472046FFF719FD012805D1FEF77F
:102C1000E7FF2846FDF72CFB70BDFEF7E1FF03E060
:102C20002846FDF725FBF7E72846FDF721FBA06ABC
:102C3000FEF7F4FF2046FFF7B2FC00BFFEF70EFDE3
:102C40000028C3D100BFE7E7040100201FB5202002
:102C50001F21C200074BCDE90032CDE9021000234D
:102C6000054A06A1074800F00FF8064800F06CF886
:102C70001FBD0000A8140020C12B00087469646CFB
:102C800065000000281400202DE9FF5F05460C4672
:102C900016461F46DDE910ABDDE90E89224600210C
:102CA0002846FFF7ADFC3B463246214628468DE8D4
:102CB000000FFEF7DDFC04B0BDE8F09F70B50446E0
:102CC00094F8340000F00F00022802D04FF0FF30DB
:102CD00070BDFDF7C9FA054604F11400FFF706FAC6
:102CE00004F14C0000F0C6F92846FDF7C1FA204671
:102CF000FFF7F6FC0020EBE7014800687047000092
:102D0000F800002031B5FDF7AFFA05460D4804681C
:102D1000204600F02FF86A46002104F14C0000F034
:102D2000E9F804F14C0000F029F92846FDF7A0FA73
:102D3000FFF78EFC206B801C08B900202063002068
:102D400038BD0000F800002010B504463434A078E7
:102D500060706178012088406060022004F83409C6
:102D60002046FFF7ABFFFFF7C7FF08B1FFF770FC86
:102D7000002010BD70B5044694F8340000F00F0038
:102D8000012802D04FF0FF3070BDFDF76DFA054607
:102D900094F8340020F00F0040F0020084F8340072
:102DA0002046FFF7C5FC04F14C0000F063F928460B
:102DB000FDF75EFA0020E7E770B5044625466FF0A0
:102DC0000100286305F11400FFF790F92846FFF78A
:102DD00087FCFFF73DFC70BD70B5FDF745FA054671
:102DE0001448046894F8340000F00F0001281CD146
:102DF000D4E90510814218D004F11400FFF776F9E8
:102E000094F835200C4B03EBC20004F11401426826
:102E1000116042684A604160086000BF2846FDF7C3
:102E200027FAFFF715FC002070BD2846FDF720FAB1
:102E30000020F9E7F800002048160020014800684B
:102E4000704700007400002010B50A480068401C5C
:102E500008490860FFF750FF0446A06C401EA064BC
:102E6000A06C18B9606CA064FFF7B6FF00F004F81E
:102E700010BD00007400002070B5FFF7DFFF0546AD
:102E8000FDF7F2F9064628E019480068A0F114049D
:102E9000A06A281A6FF0004188421DD22046FEF732
:102EA0004AFCD4E907108847FFF7C8FF0546607A57
:102EB00000F0020058B1607A00F0010038B1607A89
:102EC00020F001006072204600F058F805E0607ABA
:102ED00020F00100607200E004E00548FFF7F5F81B
:102EE0000028D1D000BF3046FDF7C2F970BD000008
:102EF0000C010020034649B1012904D0022908D061
:102F0000032910D10AE0586A10600CE0106858627A
:102F100009E0587A20F00200587204E0587A40F034
:102F20000200587200BF00BF0020704770B5044611
:102F3000FDF79AF905462046FEF7FDFB2846FDF70A
:102F400097F92046FFF73BFB002070BD2DE9F843C1
:102F500007460C4615461E46DDE90889224609212A
:102F60003846FFF74DFB4346324629463846CDF8F2
:102F70000090FEF7BFFBBDE8F88300002DE9F843A1
:102F80000546FDF771F980462846FEF7D4FB687ABE
:102F900020F0010068724046FDF76AF9FFF74EFF26
:102FA000696A0844A862FDF75FF980462F4F0097D1
:102FB00000242AE019E05DF824201168142202EBB5
:102FC000C402881A826AAB6AD21A00D108E0826A07
:102FD000AB6AD21A6FF000439A4200D20CE000BFF5
:102FE0005DF8240000684DF824005DF8240007EB2C
:102FF000C40149688842DED100BF2CB15DF82400CD
:103000000830611C4DF82100641C002CD2D01848F7
:103010000068401C164908600846066805F114015E
:103020000098FFF73CF8022412E006F0030060B9B4
:10303000C4F1010305F1140202EBC301C4F1010262
:103040005DF82200FFF72BF800E003E0B608641CEF
:10305000012CEAD900BF687A40F00100687240464E
:10306000FDF706F90020BDE8F88300000C01002000
:103070001401002070B50446607A00F0010010B918
:103080004FF0FF3070BDFDF7EFF805462046FEF724
:1030900052FB2846FDF7ECF8607A20F001006072E0
:1030A0000020EFE72DE9FF4F89B0804644460A989B
:1030B0004044461E464504D24FF0FF36A6EB0800BA
:1030C0000A906FE10B980078252806D0B44202D808
:1030D0000B9800782070641C61E1002526E00B98B5
:1030E000401C0B900B9800782D2802D145F010055C
:1030F0001CE00B9800782B2802D145F0040515E060
:103100000B980078202802D145F008050EE00B98B6
:103110000078232802D145F0200507E00B980078BD
:10312000302802D145F0010500E000E0D7E700BFFC
:103130004FF0FF370B98007830380A2804D20BA8DC
:1031400000F061F907460EE00B9800782A280AD1B2
:103150000B98401C0B900C9880C80C90002F02DA42
:103160007F4245F010054FF0FF390B9800782E286C
:103170001CD10B98401C0B900B98007830380A2813
:1031800004D20BA800F03FF981460AE00B980078C2
:103190002A2806D10B98401C0B900C9850F8049BE1
:1031A0000C90B9F1000F01DA4FF0000900200490F3
:1031B0000B980078682803D00B9800786C2805D10C
:1031C0000B98007804900B98401C0B900A200590F7
:1031D0000B9800786F2875D00CDC632813D004DCC2
:1031E000252870D058286FD18DE064286DD06928CB
:1031F000F9D18FE070286AD0732825D0752878D04F
:103200007828F0D182E005F0100040B904E0B44223
:1032100001D820202070641C781E071EF7DC0C9853
:1032200010F8041B0C90C8B20790B44201D807985C
:103230002070641C04E0B44201D820202070641C7B
:10324000781E071EF7DCAAE00C98006806900C9820
:10325000001D0C90069808B95AA006900698FFF732
:1032600069FB8346B9F1000F02DDCB4500DDCB469B
:1032700005F0100048B904E0B44201D820202070C5
:10328000641C38467F1E5845F6DC002008900BE091
:10329000B44202D8069800782070641C0698401C3E
:1032A00006900898401C089008985845F0DB04E008
:1032B000B44201D820202070641C38467F1E584537
:1032C000F6DC6CE01CE015E028E022E0FFE7781C6B
:1032D00010B9082745F00105CDE9007902950C9851
:1032E00004C8102331460C902046FEF76FFB0446BD
:1032F00055E012E0B44201D825202070641C4EE055
:10330000082005901DE045F0400500BF1020059005
:1033100017E000BF45F0020500BF12E0B44201D83B
:1033200025202070641C0B98007830B1B44202D87C
:103330000B9800782070641C02E00B98401E0B90E4
:103340002DE000BF04986C2807D10C9850F804AB0E
:103350000C9005F00200B8B116E0049868280BD173
:103360000C9830F8041B1FFA81FA0C9005F002004B
:1033700050B10FFA8AFA07E00C9850F804AB0C90A1
:1033800005F0020000B100BFCDE900790295524678
:1033900031462046059BFEF719FB044600BF0B98FB
:1033A000401C0B900B98007800287FF48BAEB44241
:1033B00001D8207001E000203070A4EB08000DB0AF
:1033C000BDE8F08F284E554C4C2900000020704776
:1033D00000207047002070470020704710B5FCF7B0
:1033E00043FFFEF793FCFFF74DFAFFF781FBFFF772
:1033F00041FBFEF7B1FBFFF789FBFFF727FCFFF767
:103400005FFB002010BD0146002009E00B685A1C3C
:103410000A601A7800EB800302EB4302A2F130004D
:103420000A681278303A0A2AF0D37047002411E073
:10343000002109480068FFF7EAF904463CB907494A
:1034400007A0FEF7FDFD40210448FCF796FF0A2087
:10345000FFF785FBECE70000340000202811002076
:10346000CAD5B5BDCAFDBEDDA3BA25730A000000EA
:103470004FF04070E1EE100A7047000001000200BA
:10348000010003000100020001000400010002002D
:10349000010003000100020001000500010002001C
:1034A000010003000100020001000400010002000D
:1034B00001000300010002000100060001000200FB
:1034C00001000300010002000100040001000200ED
:1034D00001000300010002000100050001000200DC
:1034E00001000300010002000100040001000200CD
:1034F00001000300010002000100070001000200BA
:1035000001000300010002000100040001000200AC
:10351000010003000100020001000500010002009B
:10352000010003000100020001000400010002008C
:10353000010003000100020001000600010002007A
:10354000010003000100020001000400010002006C
:10355000010003000100020001000500010002005B
:10356000010003000100020001000400010002004C
:103570000100030001000200010030313233343514
:10358000363738396162636465660030313233340E
:10359000353637383941424344454600D93300086F
:1035A000D1330008CD330008D5330008CC350008EE
:1035B0000000002028010000C4010008F4360008C3
:1035C00028010020801C0000E0010008007A030AA6
:1035D00000000000000000000102030406070809C3
:1035E00000000000010203040102030406070809A9
:1035F00000000000000000000000000000000000CB
:1036000000000000000000000000000000000000BA
:1036100000000000000000000000000000000000AA
:10362000000000000000000000000000000000009A
:103630000000000000000000010000000200000087
:10364000000000000000000000000000000000007A
:10365000000000000000000000000000000000006A
:10366000000000009800002098000020800000006A
:1036700001000000A8000020A80000202000000099
:1036800003000000B8000020B80000202000000067
:1036900004000000C8000020C80000203000000026
:1036A00005000000D8000020D800002034000000F1
:1036B00009000000E8000020E80000202C000000C5
:1036C00000000000000000000000000000000000FA
:1036D00000000000000000000000000000000000EA
:1036E00000000000000000000000000000000000DA
:0436F00000000000D6
:040000050800018965
:00000001FF
