:020000040800F2
:10000000E00B002029020008010500084B0300084E
:10001000FD040008010400088D060008000000002F
:10002000000000000000000000000000250500089E
:1000300005040008000000009702000815060008EB
:10004000430200084302000843020008430200087C
:10005000430200084302000843020008430200086C
:10006000430200084302000843020008430200085C
:10007000430200084302000843020008430200084C
:10008000430200084302000843020008430200083C
:10009000430200084302000843020008430200082C
:1000A000430200084302000843020008430200081C
:1000B000430200084302000843020008430200080C
:1000C00043020008430200084302000843020008FC
:1000D00043020008430200084302000843020008EC
:1000E00043020008430200084302000843020008DC
:1000F00043020008430200084302000843020008CC
:1001000043020008430200084302000843020008BB
:1001100043020008430200084302000843020008AB
:10012000430200084302000843020008430200089B
:10013000430200084302000843020008430200088B
:10014000430200084302000843020008430200087B
:10015000430200084302000843020008430200086B
:10016000430200084302000843020008430200085B
:10017000430200084302000843020008430200084B
:10018000430200084302000800F002F800F03CF8C7
:100190000AA090E8000C82448344AAF10107DA45E2
:1001A00001D100F031F8AFF2090EBAE80F0013F0F8
:1001B000010F18BFFB1A43F001031847081800008D
:1001C00028180000103A24BF78C878C1FAD852071E
:1001D00024BF30C830C144BF04680C6070470000C1
:1001E0000023002400250026103A28BF78C1FBD840
:1001F000520728BF30C148BF0B6070471FB501F0E0
:1002000043FB1FBD10B510BD00F0B9F81146FFF754
:10021000F5FF00F0EEF800F0D7F803B4FFF7F2FFB7
:1002200003BC00F0DFF80000094880470948004798
:10023000FEE7FEE7FEE7FEE7FEE7FEE7FEE7FEE796
:10024000FEE7FEE704480549054A064B70470000F3
:100250002506000889010008E0050020E00B0020C9
:10026000E0070020E0070020EFF3108072B670472F
:1002700080F3108870473A4A1368012B04D04FF07E
:1002800001031360374A1060374A116037484FF056
:10029000805101607047EFF3108272B630480168F8
:1002A00051B34FF0000101602E48016891B1EFF3A6
:1002B00009811EF0100F08BF21ED108B21E9F00F0E
:1002C0004FF000041EF0100F08BF012441F8044D48
:1002D0000068016024490968096808C9B1E8F00F9D
:1002E000002B18BFB1EC108B81F309884EF0100E73
:1002F000002B18BF2EF0100E82F310884EF0040E63
:10030000704719490860EFF3148222F0040282F367
:10031000148814494FF00000086011494FF00100A3
:10032000086013484FF47F01D0F8002041EA020131
:1003300001600E484FF0805101600E48006800686F
:1003400080F3088861B662B67047EFF3098000B5A4
:1003500000F0B8FB5DF804EB4EF0040E70470000AF
:1003600088000020800000208400002004ED00E0D0
:1003700020ED00E008ED00E07047704770477546DB
:1003800000F02CF8AE4605006946534620F0070001
:10039000854618B020B5FFF755FFBDE820404FF067
:1003A00000064FF000074FF000084FF0000B21F05F
:1003B0000701AC46ACE8C009ACE8C009ACE8C0092C
:1003C000ACE8C0098D46704710B50446AFF3008015
:1003D0002046BDE81040FFF720BF000000487047EE
:1003E0008005002001491820ABBEFEE72600020070
:1003F000704710B5FFF738FF01F01EFA002010BD5E
:1004000000BFFEE77047F0B50A4600210023002434
:1004100000BF3DE0012505FA01F3156805EA030474
:100420009C4234D105684F000326BE40B5430560A9
:1004300015794E00B5400668354305601579012DE4
:1004400002D01579022D16D185684F000326BE40D3
:10045000B543856055794E00B54086683543856063
:10046000456801268E40B5434560456896798E40C3
:10047000B6B235434560C5684F000326BE40B5435C
:10048000C560D5794E00B540C6683543C560491C86
:100490001029BFD3F0BD00001CB50121202000F0C1
:1004A00031F84FF48070009001208DF80400002096
:1004B0008DF8060003208DF8050001208DF8070057
:1004C00069460D48FFF79FFF4FF4007000906946A2
:1004D0000948FFF798FF4FF480600090694606488E
:1004E000FFF791FF4FF480700349183108804000F6
:1004F0000880400008801CBD0014024000BFFEE7D9
:100500007047000029B1064A12680243044B1A6082
:1005100004E0034A12688243014B1A6070470000EE
:1005200030380240704700000CB500200190009068
:100530003448006840F480303249086000BF3148D8
:10054000006800F4003000900198401C0190009871
:1005500018B90198B0F5A04FF1D12A48006800F40D
:10056000003010B10120009001E0002000900098C0
:10057000012846D123484030006840F0805021498E
:10058000403108602048006840F440401E4908603F
:100590001C48083000681B4908310860084600689C
:1005A00040F4004008600846006840F4A05008602D
:1005B0001648091F0860081F006840F08070091F76
:1005C000086000BF0F48006800F000700028F9D0F4
:1005D00040F205700E4908600A480830006820F0B3
:1005E00003000849083108600846006840F002002E
:1005F000086000BF03480830006800F00C000828BD
:10060000F8D10CBD0038024000700040195440077A
:10061000003C024010B500F003FB00F05FFE00F06C
:100620000FFB10BD10B51548006840F47000134969
:1006300008601348006840F001001149086000207C
:100640000F49083108600E4800680E4908400C49FF
:1006500008600D48091D0860081F006820F480200C
:10066000091F0860002006490C310860FFF75CFF95
:100670004FF0006001498039086010BD88ED00E04E
:1006800000380240FFFFF6FE1030002400BFFEE7F6
:10069000014609B900207047C8B220B1C8B20E4A5D
:1006A000105C401CF7E701F47F4028B10A48C1F311
:1006B0000722805C0930EEE701F47F0028B106488C
:1006C000C1F30742805C1130E5E7034800EB11609D
:1006D00000781930DFE70000921800080349086825
:1006E000884201D0012070470020FCE76C00002008
:1006F0002DE9FC5F04468B4615461E46DDE90C9A43
:10070000DDE90E7804F114004060006000BF1C3485
:100710006560A660C4F80C90C4F810A02321D4E949
:10072000030200F0DAFAD4E9033C63441A1F0F4BCA
:10073000D4E9010100F04CFA2060A776677600202A
:10074000E061C4F82080C4F8248060612076606590
:10075000A0651C3C00902346054A2146019004F107
:10076000440000F021FE0020BDE8FC9F9510000829
:100770004D1200082DE9F04704460E4617469846EC
:10078000DDF8209084F80990607A20F00100607212
:10079000E66127620020A062C4F82480002506E0FC
:1007A00004F1140101EBC50000F075FA6D1C012D78
:1007B000F6DBBDE8F08710B50246002001460EE0EA
:1007C00002F1140303EBC100D0E900436360D0E9F8
:1007D000003423604060006000BF481C01460129CE
:1007E000EEDB10BD0020704710B5044600F0F8F8AD
:1007F000FFF7F8FF10BD00002DE9F04F85B00D4662
:100800009C46DDE90F740E9B04F04008B8F1000F20
:1008100002D0DFF8688101E0DFF86481CDF8008064
:1008200004F01008B8F1000F01D024F0010404F026
:100830000108B8F1000F02D04FF0300801E04FF08E
:100840002008C246002604F00208B8F1000F11D0BB
:10085000002A02DA2D2652420CE004F00408B8F116
:10086000000F01D02B2605E004F00808B8F1000FB6
:1008700000D02026002142B94FF0300B8846491C99
:100880000DF1040909F808B01DE01AE0E146B9F1DC
:100890000A0F08D14FF00A0BB2FBFBFE0BFB1E2820
:1008A000B2FBFBF202E002F00F08120900BFDDF814
:1008B000009019F808B08846491C0DF1040909F8A0
:1008C00008B0002AE2D1B94200DD0F46DB1B04F07C
:1008D0001108B8F1000F10D116B1002B00DD5B1E1E
:1008E00006E0A84203D84FF0200880F80080401CA2
:1008F000B3F10008A3F10103F3DC26B1A84201D84B
:1009000006705B1E401C04F01008B8F1000F0AD1FD
:1009100004E0A84201D880F800A0401CB3F1000810
:10092000A3F10103F5DC06E0A84203D84FF030083C
:1009300080F80080401CB8467F1E8845F4DC08E043
:10094000A84205D80DF1040818F8018080F800804D
:10095000401CB1F10008A1F10101F1DC06E0A84260
:1009600003D84FF0200880F80080401CB3F1000845
:10097000A3F10103F3DC05B0BDE8F08FA319000873
:10098000921900087FB50A4C14200A214FF4007216
:10099000084BCDE90032CDE902100023064A07A139
:1009A000204600F0FFFB0546204600F039FC7FBDE5
:1009B0009002002090000020E90700086D61696E38
:1009C0000000000010B5044C02E020688047241DA0
:1009D00002488442F9D310BDB8190008BC190008B8
:1009E00010B5044C02E020688047241D0248844270
:1009F000F9D310BDBC190008C019000810B5FFF7E5
:100A000033FC044604480088401C00B202490880B8
:100A10002046FFF72DFC10BD5C00002010B5FFF74D
:100A200023FC04460B480088401E00B20949088098
:100A30000846B0F90000002807DC002008802046A6
:100A4000FFF716FC00F0C2F902E02046FFF710FCA9
:100A500010BD00005C00002070B5164800684FF41F
:100A60007A72B0FBF2F1481EB0F1807F00D31BE038
:100A7000481E4FF0E022506150170F22002807DA7D
:100A800013071D0E0C4B00F00F04241F1D5503E02F
:100A900013071C0E094B1C5400BF00204FF0E0222E
:100AA00090610720106100BFFFF7F6FCFFF78AFF97
:100AB00070BD00000000002018ED00E000E400E040
:100AC0007047000070B504461948006838B12046E8
:100AD000174909688847054605B970BD00BF15A0CC
:100AE000E16900F0BDF817A0A16900F0B9F819A0FC
:100AF000616900F0B5F81BA0216900F0B1F81DA0F4
:100B0000E16800F0ADF81FA0A16800F0A9F821A0ED
:100B1000616800F0A5F823A0216800F0A1F800F0BA
:100B200079FB0546294623A000F09AF800BFFEE7AE
:100B30008C0000207073723A203078253038780AA3
:100B4000000000002070633A203078253038780AA1
:100B500000000000206C723A203078253038780A86
:100B6000000000007231323A203078253038780A9F
:100B7000000000007230333A203078253038780A8F
:100B8000000000007230323A203078253038780A80
:100B9000000000007230313A203078253038780A71
:100BA000000000007230303A203078253038780A62
:100BB0000000000068617264206661756C74206FCB
:100BC0006E207468726561643A2025730A00000023
:100BD000F0B504460D461646301D20F00700443897
:100BE0000146002203E00D4F41F82270521C112AE9
:100BF000F9D34D624FF0000CC1F828C0C1F82CC0E9
:100C0000C1F830C0C1F834C08B63CC634FF0807C36
:100C1000C1F840C000270F60F0BD0000EFBEADDEA0
:100C200010B5FFF721FB044604480078401C034937
:100C300008702046FFF71CFB10BD000018000020C4
:100C400010B5FFF711FB044604480078401E034925
:100C500008702046FFF70CFB10BD000018000020B4
:100C60000FB438B505A800907F210848009B049A6E
:100C700000F046FC04467F2C00D97F240348FFF790
:100C80001FFF0020009038BC5DF814FB000400201A
:100C900040600060704740600060704702685160CB
:100CA00002680A600160486070470268516002682B
:100CB0000A6001604860704701460868884201D1B7
:100CC000012070470020FCE7D0E900215160D0E905
:100CD00000121160406000607047F0B50C46054698
:100CE000E6B2042A15D300F0030797B9014646EA95
:100CF000062343EA034304E008C108C108C108C150
:100D0000103A102AF8D201E008C1121F042AFBD2BF
:100D10000D4601E005F8016B171EA2F10102F9D1A1
:100D2000F0BD70B50446FFF79FFA054604F10C00CC
:100D3000D0E900215160D0E90012116040600060EC
:100D400000BF2846FFF794FA70BD0000024600215C
:100D50000AE0074800EB01100078904203D10448F4
:100D600000EB01107047491C0429F2DB0020F9E771
:100D70001C0000202DE9F04104460D461646284689
:100D8000FFF7E4FF074645F0800020720822314655
:100D9000204600F016F9FFF767FA8046381D04F187
:100DA0000C010268516002680A600160486000BF7F
:100DB0004046FFF75DFABDE8F0810146087A00F091
:100DC000800008B1012070470020FCE72DE9F041C8
:100DD000FFF74AFA07461B48008868BB1A480068B4
:100DE000FFF756FC461E194850F83600A0F11404CF
:100DF0001748006884421BD016490E7014480568D5
:100E000004601548007848B904F11C0105F11C0084
:100E1000FFF731FA3846FFF72BFA0CE004F11C011A
:100E200005F11C00FFF727FA3846FFF721FA02E028
:100E30003846FFF71DFA02E03846FFF719FABDE819
:100E4000F08100005C000020680000208004002089
:100E500060000020640000201800002070B50446E7
:100E6000FFF702FA054614F8340F20F00F0040F0A7
:100E7000010020706278343C0A4B03EBC20004F19D
:100E800014014268116042684A604160086000BF16
:100E90000549A06B09680843034908602846FFF725
:100EA000E7F970BD800400206800002070B504469A
:100EB000FFF7DAF9054604F11400D0E9002151608A
:100EC000D0E9001211604060006000BF94F8351056
:100ED000094A02EBC1000168814201D1012100E011
:100EE000002129B10548A16B0068884303490860C7
:100EF0002846FFF7BDF970BD80040020680000207F
:100F000008B509A0FFF7ACFE0AA0FFF7A9FE12A0E2
:100F1000032300221946009012A0FFF7A1FE19A09A
:100F2000FFF79EFE08BD00000A205C207C202F0AEF
:100F3000000000002D205254202D2020202020547D
:100F40006872656164204F7065726174696E6720B4
:100F500053797374656D0A004D6179203232203205
:100F600030313900202F207C205C202020202025BB
:100F7000642E25642E2564206275696C64202573B7
:100F80000A0000002032303036202D203230313837
:100F900020436F7079726967687420627920727477
:100FA0002D746872656164207465616D0A000000CB
:100FB00001460A4600E0521C10780028FBD1501A66
:100FC000704770B50346A2B118460C4600BF14F82E
:100FD000016B00F8016B3EB902E0002500F8015BEF
:100FE000551E2A1EF9D102E0551E2A1EEFD100BF60
:100FF00000BF184670BD000010B500200B490880E6
:10100000002405E00A4901EBC400FFF741FE641C1F
:10101000202CF7DB1F2007490870002006490860D4
:10102000064908600648FFF733FE10BD5C0000204B
:101030008004002064000020600000206800002080
:101040006C00002070B508480068FFF721FB451EC2
:10105000064850F83500A0F114040548046004F176
:101060001C00FFF74EF970BD6800002080040020CE
:101070006000002010B5002405E0044901EBC40025
:10108000FFF709FE641C002CF7D010BD740000208F
:101090007047000070B512480468FFF7E5F8054690
:1010A0002046FFF703FF042084F8340004F14400D5
:1010B00000F06AF92046FFF780FE012805D1206F75
:1010C00018B92046FFF72DFE04E004F1140105488D
:1010D000FFF7E4FD2846FFF7CBF8FFF777FE70BD7A
:1010E000600000206C00002001E000F001F8FCE747
:1010F00070B531E0FFF7B8F80546FFF7EFFA18B31F
:1011000018480068A0F1140404F11400D0E900218B
:101110005160D0E9001211604060006000BFFFF72D
:101120006DFC206F10B12046216F88472046FFF7E5
:1011300044FE012805D1FFF771FC2846FFF798F817
:1011400070BDFFF76BFC03E02846FFF791F8F7E767
:101150002846FFF78DF800BFFFF7C0FA0028C9D175
:1011600000BFEDE76C0000201FB520201F2180226A
:10117000074BCDE90032CDE902100023054A06A154
:10118000074800F00FF8064800F04AF81FBD0000BD
:1011900080030020E91000087469646C6500000099
:1011A000080300202DE9FF5F05460C4616461F4642
:1011B000DDE910ABDDE90E89224600212846FFF764
:1011C000D9FD3B463246214628468DE8000FFFF701
:1011D0008FFA04B0BDE8F09F70B5044694F834006F
:1011E00000F00F00022802D04FF0FF3070BDFFF773
:1011F0003BF8054604F11400FFF766FD04F14400D6
:1012000000F066F92846FFF733F82046FFF726FE80
:101210000020EBE7014800687047000060000020F4
:1012200010B504463434A07860706178012088409D
:101230006060022004F834092046FFF7CDFFFFF775
:10124000E9FF08B1FFF7C2FD002010BD70B50446EC
:1012500025466FF00100286305F11400FFF734FD07
:101260002846FFF7FBFDFFF7B1FD70BD70B5FEF737
:10127000FBFF05461448046894F8340000F00F00A2
:1012800001281CD1D4E90510814218D004F11400C2
:10129000FFF71AFD94F835200C4B03EBC20004F164
:1012A00014014268116042684A604160086000BFF2
:1012B0002846FEF7DDFFFFF789FD002070BD2846B8
:1012C000FEF7D6FF0020F9E7600000208004002030
:1012D00001480068704700001400002010B50A485B
:1012E0000068401C08490860FFF794FF0446206C22
:1012F000401E2064206C18B9E06B2064FFF7B6FF35
:1013000000F004F810BD00001400002070B5FFF7D5
:10131000DFFF0546FEF7A8FF064628E019480068EB
:10132000A0F11404A06A281A6FF0004188421DD26F
:101330002046FFF740FAD4E907108847FFF7C8FFB7
:101340000546607A00F0020058B1607A00F00100B2
:1013500038B1607A20F001006072204600F03CF85D
:1013600005E0607A20F00100607200E004E00548CA
:10137000FFF7A2FC0028D1D000BF3046FEF778FF6F
:1013800070BD00007400002070B50446FEF76CFFCD
:1013900005462046FFF70FFA2846FEF769FF20466C
:1013A000FFF7BFFC002070BD2DE9F84307460C464F
:1013B00015461E46DDE90889224609213846FFF711
:1013C000D9FC4346324629463846CDF80090FFF70F
:1013D000D1F9BDE8F88300002DE9F8430546FEF792
:1013E00043FF80462846FFF7E6F9687A20F00100BF
:1013F00068724046FEF73CFFFFF76AFF696A0844DF
:10140000A862FEF731FF80462F4F009700242AE0A4
:1014100019E05DF824201168142202EBC402881A36
:10142000826AAB6AD21A00D108E0826AAB6AD21A29
:101430006FF000439A4200D20CE000BF5DF8240038
:1014400000684DF824005DF8240007EBC4014968EA
:101450008842DED100BF2CB15DF824000830611C49
:101460004DF82100641C002CD2D018480068401CA4
:10147000164908600846066805F114010098FFF750
:1014800014FC022412E006F0030060B9C4F1010369
:1014900005F1140202EBC301C4F101025DF8220060
:1014A000FFF703FC00E003E0B608641C012CEAD956
:1014B00000BF687A40F0010068724046FEF7D8FE2F
:1014C0000020BDE8F8830000740000207C000020AC
:1014D00070B50446607A00F0010010B94FF0FF309B
:1014E00070BDFEF7C1FE05462046FFF764F92846A9
:1014F000FEF7BEFE607A20F0010060720020EFE788
:101500002DE9FF4F89B0804644460A984044461E64
:10151000464504D24FF0FF36A6EB08000A906FE173
:101520000B980078252806D0B44202D80B98007892
:101530002070641C61E1002526E00B98401C0B9094
:101540000B9800782D2802D145F010051CE00B986F
:1015500000782B2802D145F0040515E00B9800789F
:10156000202802D145F008050EE00B9800782328CA
:1015700002D145F0200507E00B980078302802D111
:1015800045F0010500E000E0D7E700BF4FF0FF376E
:101590000B98007830380A2804D20BA800F061F9C3
:1015A00007460EE00B9800782A280AD10B98401CB9
:1015B0000B900C9880C80C90002F02DA7F4245F007
:1015C00010054FF0FF390B9800782E281CD10B988E
:1015D000401C0B900B98007830380A2804D20BA8D6
:1015E00000F03FF981460AE00B9800782A2806D1DE
:1015F0000B98401C0B900C9850F8049B0C90B9F180
:10160000000F01DA4FF00009002004900B980078D9
:10161000682803D00B9800786C2805D10B980078C7
:1016200004900B98401C0B900A2005900B980078B2
:101630006F2875D00CDC632813D004DC252870D00B
:1016400058286FD18DE064286DD06928F9D18FE0DA
:1016500070286AD0732825D0752878D07828F0D1E2
:1016600082E005F0100040B904E0B44201D8202027
:101670002070641C781E071EF7DC0C9810F8041B01
:101680000C90C8B20790B44201D807982070641C2F
:1016900004E0B44201D820202070641C781E071E8C
:1016A000F7DCAAE00C98006806900C98001D0C90DE
:1016B000069808B95AA006900698FFF779FC834669
:1016C000B9F1000F02DDCB4500DDCB4605F010007F
:1016D00048B904E0B44201D820202070641C384688
:1016E0007F1E5845F6DC002008900BE0B44202D87B
:1016F000069800782070641C0698401C0690089894
:10170000401C089008985845F0DB04E0B44201D82A
:1017100020202070641C38467F1E5845F6DC6CE0A3
:101720001CE015E028E022E0FFE7781C10B908274C
:1017300045F00105CDE9007902950C9804C8102305
:1017400031460C902046FFF757F8044655E012E06A
:10175000B44201D825202070641C4EE0082005907A
:101760001DE045F0400500BF1020059017E000BFC8
:1017700045F0020500BF12E0B44201D825202070D8
:10178000641C0B98007830B1B44202D80B980078F2
:101790002070641C02E00B98401E0B902DE000BFEF
:1017A00004986C2807D10C9850F804AB0C9005F005
:1017B0000200B8B116E0049868280BD10C9830F8F4
:1017C000041B1FFA81FA0C9005F0020050B10FFAC9
:1017D0008AFA07E00C9850F804AB0C9005F0020070
:1017E00000B100BFCDE9007902955246314620464E
:1017F000059BFFF701F8044600BF0B98401C0B90B7
:101800000B98007800287FF48BAEB44201D820708A
:1018100001E000203070A4EB08000DB0BDE8F08FAF
:10182000284E554C4C29000000207047002070477E
:10183000002070470020704710B5FEF715FDFFF738
:101840000BF9FFF75DFBFFF715FCFFF7D5FBFFF783
:1018500099F8FFF71DFCFFF787FCFFF7F3FB00206B
:1018600010BD0146002009E00B685A1C0A601A7876
:1018700000EB800302EB4302A2F130000A68127809
:10188000303A0A2AF0D370474FF04070E1EE100A68
:101890007047000001000200010003000100020087
:1018A0000100040001000200010003000100020029
:1018B0000100050001000200010003000100020018
:1018C0000100040001000200010003000100020009
:1018D00001000600010002000100030001000200F7
:1018E00001000400010002000100030001000200E9
:1018F00001000500010002000100030001000200D8
:1019000001000400010002000100030001000200C8
:1019100001000700010002000100030001000200B5
:1019200001000400010002000100030001000200A8
:101930000100050001000200010003000100020097
:101940000100040001000200010003000100020088
:101950000100060001000200010003000100020076
:101960000100040001000200010003000100020068
:101970000100050001000200010003000100020057
:101980000100040001000200010003000100020048
:1019900001003031323334353637383961626364AF
:1019A0006566003031323334353637383941424399
:1019B00044454600351800082D180008291800086D
:1019C00031180008E4190008000000209000000011
:1019D000C4010008741A000890000020500B000099
:1019E000E0010008007A030A000000000000000087
:1019F00001020304060708090000000000000000BF
:101A000000000000200000202000002078000000DE
:101A10000100000030000020300000202000000005
:101A200004000000400000204000002030000000C2
:101A30000900000050000020500000202C00000091
:101A40000000000000000000000000000000000096
:101A50000000000000000000000000000000000086
:101A60000000000000000000000000000000000076
:041A70000000000072
:040000050800018965
:00000001FF
